:10000000023000FFFFFFFFFFFFFFFFFFFFFFFFFFCB
:10001000FFFFFFFFFFFFFFFFFFFFFFFFFFFFFFFFF0
:10002000FFFFFFFFFFFFFFFFFFFFFF021336FFFF92
:10003000FFFFFFFFFFFFFFFFFFFFFFFFFFFFFFFFD0
:10004000FFFFFFFFFFFFFFFFFFFFFF0213A7FFFF01
:10005000FFFFFFFFFFFFFFFFFFFFFF022848FFFF3B
:10006000FFFFFFFFFFFFFFFFFFFFFF021367FFFF21
:10007000FFFFFFFFFFFFFFFFFFFFFF021382FFFFF6
:10008000FFFFFF020CEC00000080FB1200E2B90051
:10009000030200CDE490F0FF78F879028002F0A32B
:1000A000D8FCD9FA90F2F6AA82AB839000E5783DAD
:1000B00079018015E493A3AC82AD838A828B83F0AF
:1000C000A3AA82AB838C828D83D8E9D9E7120B3047
:1000D00012008675D0007581207510FF7593F002AF
:1000E000008B7901220106060606060604070707AB
:1000F000070707040000DFBE0007204201102700A9
:100100000000000000B80B000078ECFFFF64000066
:100110000048F4FFFFFF000000A08601000001007E
:1001200000FF43AE010022FF43AE0222C008C3E03D
:1001300096F50808A3E096420808A3E0964208084E
:10014000A3E09645087001D3D00822080808EAC049
:10015000E0EBC0E086F0E7A4FA180986F0E7A42AED
:10016000FA180986F0E7A42AFA180986F0E7A42A03
:10017000FA1986F0E7A4FBE5F02AFA190886F0E7F9
:10018000A42BFBE5F03AFA190886F0E7A42BFBE56F
:10019000F03AFA18180986F0E7A4C5F02BFBE43A08
:1001A000FA1908E7C5F0C6A426F6E5F03BFBE43AE9
:1001B000FA1886F0E7A4F6E5F00826F6E43B08F620
:1001C000E43A08F6D0E0FBD0E0FA22E026F608A3F5
:1001D000E036F608A3E036F608A3E036F622E0267D
:1001E000F008A3E036F008A3E036F008A3E036F00C
:1001F00022C3E0C696F608A3E0C696F608A3E0C6BA
:1002000096F608A3E0C696F622E0F608A3E0F60804
:10021000A3E0F608A3E0F622E6F008A3E6F008A3C0
:10022000E6F008A3E6F022E0FAA3E0FBA3E0FCA3DB
:10023000E0FD22EAF0A3EBF0A3ECF0A3EDF022CA7C
:10024000C0E0E6F30908DAFAD0E0FA22CAC0E0E03A
:10025000A3C582CCC582C583CDC583F0A3C582CC9E
:10026000C582C583CDC583DAE6D0E0CA22CAC0E024
:10027000E493A3C582CCC582C583CDC583F0A3C555
:1002800082CCC582C583CDC583DAE5D0E0CA22B968
:100290000010BB0008E88AF084F8AAF022E4FBC84A
:1002A000FA22EB70227B10C833C8C933C933500718
:1002B000C39AC3DBF280069A50012ADBEAC833F402
:1002C000C8C933F4C9FA2275F008E4C833C8C93381
:1002D000C933C99AC99B5004C92AC93BD5F0ECFB64
:1002E000C833F4C8E4C9FA22600D08C6A2E713C6F1
:1002F00018C613C6D5E0F322600C08C6C313C6188F
:10030000C613C6D5E0F422700422600D18C6C333AC
:10031000C608C633C6D5E0F41822C0E0E8C0E0E560
:100320008124FCF8E6A2E7D0E0F8D0E022D083D028
:10033000822510F8C510C39824FBCEF208E520F200
:1003400008E9C0E07908E709F208DEFAD0E0F9EF41
:10035000F208D0E0FED0E0F208EEF208E473A81054
:10036000E2FE08E208F520E9C0E07908E208F709B2
:10037000DFFAE208FFD0E0F9E208C0E0E208C0E0FE
:10038000881022C0D0C0F088F02510F8C510C3989E
:1003900024F3C0E0E5F0F208E9F208EAF208EBF233
:1003A00008D0E0FB7908E709F208DBFAE582F208F9
:1003B000E583F208D0E0F208D0E0F208E520F20888
:1003C000ECF208EDF208EEF208EFF222A810E208D3
:1003D000C0E0E208C0E0E208FAE208FB7908E208BF
:1003E000F709DFFAE208F582E208F583E208F5F0A2
:1003F000E208F5D0E208F520E208FCE208FDE20898
:10040000FEE208FF8810D0E0F9D0E0F8D0E03274C6
:10041000028000C9C0E0E510C399F510C912023F7F
:10042000D0E0F922D083D082CCC0E0E493A3600670
:1004300012044E1470FAE493A3600612046D147053
:10044000FAD0E0FCE493A3C0E0E493C0E022C0E073
:10045000E493A3D39C5010E493A3C39C400AD0E040
:10046000D0E0D0E0020441A3A3A3D0E022C0E0E4A6
:1004700093A36C7009D0E0D0E0D0E0020441A3A3C4
:10048000D0E022070C0B0C0E790D3B930E73030F7B
:10049000A3A2108CF81100341AB656151D16161C9E
:1004A0006C1CEAA91D0A0A1E00001F191117C74378
:1004B00018404019B29100D3019102FF0304044592
:1004C0000500063A070C0800095C0A580B9D0C0E43
:1004D0000D3B0E730FA3108C11001206130C1404A5
:1004E000151D161C17C7184019B21AB61B101CEFA1
:1004F0001D0D1E191F192EFF040810FA060C1422D8
:100500003D3E3F40393800000371050011040312DD
:100510000003AA0D04100600380D045A100410132D
:100520000303030311140303150303030303121648
:100530001718035A3B4236CBC5C9AFB0B5BABF0393
:10054000E5AA4CA903032203030338575990F2F696
:10055000E06002D2902290F102E0602124F7703234
:1005600090F100E02493C3941A500A12063190F1DE
:1005700002740AF022E0C394064055805090F100C6
:10058000E02477C3942F50451205D190F1027401F5
:10059000F0221205D190F101E0C333F890F100E0B0
:1005A00024F5C3942750057401488009E024CEC384
:1005B0009419500CE890F101F090F102E004F0225F
:1005C000E0C39406400A90F0FFE0C2E5F012063C5A
:1005D0002290F0FFE0D2E5F07AA07B0F122889226A
:1005E00012063190F0FFE0A2E6500CC2E6F01205D0
:1005F0005690F100E4F022A2E55006C2E5F00206B2
:100600003C02063C90F100E004F090F0FFE0C2E50F
:10061000F04441F07AE87B0390F102E014C39409BE
:1006200050047AF41B1B12288975E2007901020B31
:1006300084120B1850031228CCC2942290F102E4C9
:10064000F090F100F090F101F090F0FFE0C2E0F0E6
:10065000C29422740190F2F6F002066690F0FFE078
:10066000549CF002063C120B18500E90F0FFE05420
:1006700003700612054D1207082290F0FFE0A2E178
:10068000501790F103E004F0C39402400CE4F090A2
:10069000F0FFE0C2E1F012054D2290F102E0640AA1
:1006A000702012063190F101E024D6C394BC5007AB
:1006B000E0F9122E15400690F104E004F012063C19
:1006C000803C90F2EBE0A2E0502D90F102E0C39468
:1006D00002402490F101E0701EC2AFC290120708E0
:1006E00012063C90F0FFE0549FF0D2E1F0D2AFE56B
:1006F000A1A2E092C7800790F0FFE0C2E1F00206FD
:100700006612063C1207082290F10EE0D2E0F022B9
:1007100090F2F6F02274F912032DEAFEEBFF1213A9
:10072000D98A088B0990F2D612280290F2E3E033BE
:100730003354FC24208E828F83F0A3E508F0A3E5D8
:1007400009F0A3122079A374C6F0A37402F0A37475
:10075000AAF0A3AE82AF83903BE012077B903BE10F
:1007600012077B903BE212077B121F35E912077DCF
:1007700090F2D9E08E828F830208ABE4938E828F51
:1007800083F0A30EAF832274F912032DE51024F336
:10079000F510AA10AB93FEEBFF750800C2AFC29034
:1007A0001207157AB57BD11229527AB57BD112295D
:1007B000527AB57BD112295279A71207FD75090D1E
:1007C00012127C8E828F83E0F92508F5081207FD4E
:1007D0008E828F83A3AE82AF831509E50970E1A9EC
:1007E000081207FD438042D290D2AFE5A1A2E09269
:1007F000C7122E0DE510240DF5100208AC74FA1284
:10080000032DE9FE7F80799C120826EE5F60047953
:100810001F8002793E120826EFC313FF70ED797D29
:10082000120826021D5474FA12032DE9FF12084D16
:100830005380BD7A337B001229521FEF70EF7E1F69
:1008400012084D12084D1EEE70F6021D54438042F0
:100850007A337B001229522274F912032D1510E904
:10086000FDEAFCEBFEE5BBA810F2E5BAF243B430BA
:10087000ED4C4EF5B6E5B4A2E750FAE5BAF508E559
:10088000BBF9E5082400E439F50943B430EC13134F
:1008900013541FFCC3940340011C7408C39C7808C4
:1008A0001202F8AA08AB0905108001F07F020203CA
:1008B0005EC008C0097B0F7A3079001208588A0898
:1008C0008B09740678081202F8E50875F006A4F59D
:1008D00008A8F075F006E509A428A808F97A0A7BAB
:1008E0000012028FE824FFFAE934FFFB8007122F81
:1008F000CE05100510D009D00822120949700374E2
:10090000FF697004D2F08002C2F0A2F022C008C0D9
:100910000915101510120949700374FF697028A891
:100920001074FAF20874FFF275080275090078086D
:1009300012040FC2F07CEA7D3BE5102402FAAB936F
:100940001224860510051080A8903BEAE493F87401
:100950000193F974FF6822EEC0E0E9FE90F105E032
:100960006003C3804BC2AFC2917944120B84C29022
:100970001228D274884E90F105F090F10A74B9F003
:10098000A37404F090F108F0A37401F090F105E075
:10099000A2E090F10C50047450800274A0120ADAA4
:1009A0007A047B011228DBD2AFE5A1A2E092C7D383
:1009B000D0E0FE2274F712032DEAFEEBFF890890C7
:1009C000F105E0A2E250667B007A30798012085887
:1009D0008A0A8B0BC3EE950AEF950B503E90F106F9
:1009E000E004F0640A704690F105E0A2E490F10C96
:1009F000502FE024CDF8A3E034FFF9C3E89477E961
:100A00009400501790F107E004F0C3940B50179036
:100A1000F10CE0240FF0A3E03400F090F106E48044
:100A20000BE508120ADA90F105E0C2E2F0021F2B92
:100A300090F108120B1143804290F10C122B0260CE
:100A40000D90F10CE024FFF0A3E034FFF02290F1D0
:100A500005E0A2E35034A2E1500CD2E2F090F1079D
:100A6000E4F090F106F090F10A7461F0A3742FF0B5
:100A700090F1087482120ADA90F10C74D4120ADA36
:100A800090F105E054D74410F022A2E4502A90F1EE
:100A90000A74FCF0A3740BF090F1087456F0A37480
:100AA00002F090F10C74A5F0A37403F090F105E04E
:100AB00054E74424120ADA22A2E5501DA2E05005B0
:100AC000122EB48007A2E15003122EDF90F105E44C
:100AD000F053E5BFD290122E0D22F0A3E4F0229045
:100AE000F105E0A2E75006C2E7F0020A30D2E7F0D3
:100AF00090F10A120B1190F105E0A2E05008C286B5
:100B0000792A7A788006C28179057A5A7B000209AF
:100B1000B41228021228DB2290F105E07004D2F012
:100B20008002C2F0A2F022122E0D90F105E4F02214
:100B300090DF36E06491700843C90343C90880FE22
:100B40001212BD43F20143C908D2AF12297A120C26
:100B500077122688120B27120701121250122E56F6
:100B60001222CFD2F01211CB90F2C4E0F9122F6D05
:100B700012129512069A120C8D12146512258F12FC
:100B80000B9B80EFE9F4F890F10EE058F0E490F15F
:100B90000FF02290F10EE054CF80F1EEC0E090F221
:100BA000C0E0A2E0B3C0D0120B1892F012031A15E5
:100BB0008182F05051C2AFE490F10FF012127C909C
:100BC000F10EE054546454700ED2917E03C29074BE
:100BD0000190F10FF0801DE024F3600E24F8600610
:100BE00024F0600A800C7E0280E57E0180067E0093
:100BF00080027E0490F10FE0600A12141EEEF912DA
:100C00000C0A8002D2AFD0E0FE2274026960057443
:100C100003697062E5D5F8E5D4FCE5D6FD43D681DD
:100C2000740269700B74F290F305F0A374F78009F5
:100C300074F290F305F0A374FEF074F3F5D575D457
:100C40000575D601E5A5FAE5A56A60FB43C7027400
:100C5000044942BED2AFE5A1A2E092C700000090D5
:100C6000F10FE0600875D701004387010053C7FD0D
:100C700088D58CD48DD62243C68090F10EE4F02224
:100C8000120DFD50077A627BF11215CE2274F71215
:100C9000032D90F11BE0600814602E146048804919
:100CA00090F119E090DF2EF090F110E090DF05F068
:100CB00090F111E090DF06F012108B90F11B74039D
:100CC000F012103D121002802090F2DC780812021F
:100CD0000912165290F1151222C7EB99F9C3E89444
:100CE000A1E9940F50DE120C80021F2BC0E074EFBC
:100CF000120383C2AF759B00E5E9A2E5501090F1A5
:100D00001BE06403704590F10EE0D2E4803CE5E91D
:100D1000A2E450371211914032120D7C90F11BE089
:100D2000F87402686005740368702090F112E06442
:100D300001701890F11B7401F090DF127407F090AD
:100D4000F2DC7808120209120F2DF075E90053BE8B
:100D5000FCD2AFE5A1A2E092C77F040203CC90F1E0
:100D60001CE0FCA3E0FDA3122802ECF8EAC398F90A
:100D7000C3EC9AED9B4004744129F92274F91203E3
:100D80002D90F112E0640170047F07800790F1A2BA
:100D9000E02403FFC200120D5EE924E2F8EFC398DD
:100DA0004004E8FFD200120D5EE9C39F40387E0088
:100DB00080258E0874A22508F58274F1121A74C079
:100DC000E090F11CE0F8A3E0F5838882D0E0F07AAF
:100DD0001C7BF11211530EEEC39F5006EEC39440DC
:100DE00040D0A200501412157075E10490DF3BE072
:100DF000640170F8740190F114F00208AC74F512FB
:100E0000032D151015101510E59AA2E09200C201ED
:100E100090F11EA810E0F2A308E0F218E2FA08E24E
:100E2000FB90F11CE06A7003A3E06B7003020EDE1E
:100E3000121570E510F50C85930D90F112E0640128
:100E40007005750A05800D18120F24F50AAA0CAB5F
:100E50000D121153120D5EE9F87441C398C0E0E51C
:100E6000102402F8D0E0F2850A82858208E5082481
:100E700002FEE43400FFE29EE49FC365D033500BD2
:100E8000A20092F01210B4C3020F19E50A90F162A9
:100E9000F0750A01801B120F24C0E074622AF582EB
:100EA00074F112246BD0E0F0AA0CAB0D12115305B3
:100EB0000A850A82AA82C3EE9AEF9400C365D033F2
:100EC000A81050D290F11EE2F008A3E2F07464255D
:100ED00008F58274F1121A74A2E75002D20190F15F
:100EE0001E12207F90F11CE0687003A3E06970106F
:100EF00090F114E0600A12108BD200E490F114F02B
:100F0000A201500C90F2DC7808120209120F2DF0A9
:100F1000A20092F01210B4A2010510051005107F76
:100F20000602035EE2F58208E2F583E02285CA0A42
:100F3000E508250AF8E5093400F990F115E8F0A371
:100F4000E92274F712032D8908EAFEEBFF8C09E50C
:100F50009AC2AF12143A120FF38E828F83E509F012
:100F6000A3E508121841F50AC394415025E50A2467
:100F700001FCE43400FDEEFAEFFB12250B75E103F2
:100F8000E5E9A2E450FA12119153E9EF90F11B74D4
:100F900002F0D2AFE5A1A2E092C7790212110C12C1
:100FA00010E2120FEC021F2BEEC0E01210BC79020F
:100FB00012110C1210C6D0E0FE22EEC0E01210BCDE
:100FC0001210E290DF127407F0D0E0FE22121097A8
:100FD00090F11B7404F002117E12143A120FF312F6
:100FE0000B9390F11B7402F0120FEC221210A475F7
:100FF000E1022275E10475E10190DF3BE0640170DC
:10100000F82290F11BE0602D90F1E8E0F91229162A
:1010100090F1E7E090DF12F090F11B7403F01214EE
:101020003A1221E1120FA8120FF312103DE490F1D1
:1010300014F012117E90F10EE0D2E4F02290DF1C49
:10104000E090F1E4F090DF1DE090F1E5F090DF1E1C
:10105000E090F1E6F02290F11BE06403702C121492
:101060003A75E10490DF3BE0640170F890F1E4E050
:1010700090DF1CF090F1E5E090DF1DF090F1E6E0EC
:1010800090DF1EF0120B93120FEC22121097121128
:101090007E75E1020210A412143A539AFE75910073
:1010A000120FF322759B0075E90043D6027591314A
:1010B000439A0122A2F050031210A422E990F111E8
:1010C000F090DF06F02290F1127401F0A374071281
:1010D00010FD7404F0A37444F090DF027405F00274
:1010E000108B90F112E4F0A374401210FD7407F01D
:1010F000A37445F090DF0274FFF002108BF0FC7DCA
:10110000007AA27BF112253590DF032274F91203D5
:101110002DE9FC74026C70047E0080027E017883ED
:1011200079047D118E08E82508F582E912246BA365
:10113000E493C0E088828983E493F5827583DFD0ED
:10114000E0F0E82403080808E93400F91DED70D444
:101150000208AC8A828B83E02401F8A3E03400F912
:101160008A828B83E8F0A3E9F0C3E89462E994F102
:10117000400B8A828B837420F0A374F1F02290F1EB
:101180001C7420F0A374F1F0A37420F0A374F1F0A8
:1011900022C020C200E5E9A2E75005D20053E97F52
:1011A000E5E9A2E6500BD20090F1E9E004F012105C
:1011B0008BA200D02022E990F1E8F074016990F14F
:1011C000E770047404F0227406F022C020A2F092AA
:1011D0000012143AA200501A90F1127401122198D0
:1011E00090F110F090F11974FFF01221E1E990F103
:1011F00011F07A00EAC333F8E433F974B628F874CE
:101200000439F988828983A3E493C0E088828983C2
:10121000E493F8E428F5827583DFD0E0F00AEA94DD
:101220002140D1120FF390F11BE4F090F114F090F3
:10123000F30DE0600DE4F090F1E804F090F1E77454
:1012400004F012117ED02022C2F01211CB020C8DBC
:10125000120B18501CD290740190F2F6F090F10E1F
:10126000E0A2E6500C12124890F2E5E4F090F2A2EF
:10127000F07940120B841229F20223CCE5C9540FF5
:1012800044A0F5C9E5C9540F4450F5C92243C9012A
:1012900043C90880FE90F2C6E064AA7011E4F0121F
:1012A000281D7AD07B071229527900122E1522C2EE
:1012B000AF90F2C674BBF012281D02128D43FE13CC
:1012C00043FD7E759002438F8043F6EC75F721D283
:1012D000911212EFC294758A00C2EB438D0C439AAF
:1012E00010758900C2C5538CE7438C11D2BD2253BF
:1012F000FE1F53FFFE53F61F53F7FE53F73FE590D3
:10130000F9A2A0E433333333F8E9C4135407489007
:10131000F1EAF0A295500343FE20A296500343FE4B
:1013200040A297500343FE80A2A0500343FF014315
:10133000F6E043F70122C0E074F2120383C2AFC2A9
:10134000C775A10243A110D2AD53BEFC120B1850B9
:101350000E90F2EBE0A2E4400612105612067A124A
:1013600028E21223FE8065C0E074F2120383C2AF4C
:10137000E589A2E75003121250758900C2C5D2BD9B
:101380008047C0E074F2120383C2AFE58AA2E35043
:1013900003121250E58AA2E25003120604758A0075
:1013A000C2EB439A108022C0E074F2120383C2AFF2
:1013B000E5E4A2E55013120B1850051205E0800673
:1013C00012127C120ADF53E4DF53BEFCD2AFE5A158
:1013D000A2E092C77F010203CCC008C009903BE5A0
:1013E000E493541FFAE4A393F50875090074057893
:1013F00008120307A808E5095401F9EA48FAE9FBCD
:10140000A3E49324F6F508E434FFF5097409780899
:10141000120307E509543EF9EB49FB0208F5E5C65E
:10142000A2E6401553BEFBE5BEA2E550FA75C6C95B
:1014300074C965C670FA43BE0422E5C6A2E650240C
:1014400053BEFB787C790000E8FAE9FBEA24FF1838
:10145000EB34FFF9EA4B70EF75C688748865C67087
:10146000FA43BE042274F312032D90F2DC85CA08FD
:10147000F509F50AF50B78081201CB85080C8509EA
:101480000DAE0CAF0D12222A90F289E014600F14F9
:10149000602414605714606B14607F02151F90F273
:1014A0008E121524F8EF99F9C3E89408E9940740DF
:1014B0006E1221CD8069850A0E850B0F90F27C7823
:1014C0000C1201F190F278780C12012C505190F22C
:1014D000897405F0120B185046120FD990F28078DB
:1014E0000812021890F2897403F0803390F2807829
:1014F000081201F190F30E780812012C50211215F8
:101500002B801C90F290121524FAEF99FB90F29226
:10151000121E76400A1221048005120B1840927F99
:101520000802035E122083EEC3982274F712032D83
:1015300090F276E0F8740128F0E8C39403502B9001
:10154000F2DC85CA08E4F509F50AF50B7808120102
:10155000CB90F280780812021812157012166012E1
:1015600021E1120FA81210A480031221CD021F2B1B
:10157000539AFE759100228A828B83A3A3A3A3E0D2
:10158000F9903BE2E4936970218A828B83A3A3A341
:10159000E0F8903BE1E4936870108A828B83A3A308
:1015A000E0F8903BE0E49368601A74FF6970198A70
:1015B000828B83A3A3A3E0F4700E8A828B83A3A300
:1015C000E0F47004780180027800E8A2E02274FA66
:1015D00012032D8A828B83E5822402FEE583340088
:1015E000FFE064057005121848802290F289E064DB
:1015F000046005E0640570051221CD80100A0AEF31
:10160000FB12157750F2EEFAEFFB121C7B021D5411
:1016100074F712032D046970067AC47B0980047A7A
:10162000DC7B0590F297E0F508EA8508F0A4FAA8BB
:10163000F08508F0EBA428FB90F29212207990F24A
:10164000DC780812020912165290F29012207902E8
:101650001F2B85CA0AE508250AFAE5093400FB2292
:1016600090F2DAE090F285F090F2A0E0C0E090F223
:10167000841220F0D0E048700812070B7901121193
:10168000B62274F812032DF8F9EA2406121A71FD35
:10169000FCFE7F008F08EA2508121A67E0F50AF5BC
:1016A000083395E0F509E82508F8E93509F9ED1260
:1016B00018385006EDFCAD0A8008EC1218385002BC
:1016C000AC0AEE1218384002AE0A0FEFC39406407F
:1016D000C3EDFA3395E0FBA2F05012ECF83395E03D
:1016E000F9EA28F8EB39C313E813F88022EEF5087D
:1016F0003395E0F509EA2508FAEB3509FBE8C39ACA
:10170000F508E99BF509740278081202F8A808E8C0
:10171000F97F0302035E74F712032DA2F0920075A5
:101720000A94750805F5098018EAC3950BA2D265DD
:10173000D033400BEA12183840058A0A850908059B
:101740000990F296E0F8E509C3984003021833E5E2
:101750000975F00DA4F8A9F0742A28FE74F239FF77
:101760008E828F83A3A3A3A3E0A2E250031216608C
:101770008E828F83A3E060C78E828F83A3A3A3A3EF
:10178000A3E0C3940440B8750B948E828F83E02449
:10179000DB602A24F4602614602324EB601F1460AD
:1017A0001CA3A3A3A3E05403C4F88E828F83A3A336
:1017B000A3E0C4540F48F874DBC398F50BA2009261
:1017C000F0EEFAEFFB121682E9FAEE240CF8EF3491
:1017D00000F9EA88828983121841642160030217A4
:1017E0002990F284E0A2E24003021729C2E2F075D8
:1017F000080588828983E0F83395E0F9E50BFA3330
:1018000095E0FBEA24FBFAEB34FFFBC3E89AE99B83
:10181000A2D265D033501C8E828F837422F085094A
:1018200008120FCD121C74740190F30DF090F28425
:10183000122E10A908021F2BC3950AA2D265D0331D
:1018400022F08E828F83E02274F312032D8A0A8B9A
:101850000BF50890F277E0700690F2897401F09031
:10186000F2DC780C12020985CA0EE50C250EF8E5AB
:101870000D3400F990F28EE8F0A3E9F08A828B83B0
:10188000A3AE82AF83E0FAE50A2402F50CEB340044
:10189000F50DEA24DA602614602314602014600435
:1018A00024FE703790F277E06403600312219F906A
:1018B000F2967401F090F2777403F0805A90F27708
:1018C000E0F87403686050740168700312219F90FF
:1018D000F2967401F090F2770480DF7C0090F2774A
:1018E000E024FE603014602D8018EC121A79FB851C
:1018F0000C82850D83E06B700888828983E06A60C2
:101900000E0C90F296E0F8ECC39840DEE004F09004
:10191000F2777401F08C0890F289E064036008901B
:10192000F284E0A2E650238E828F83E0F890F27179
:10193000E068600F850C82850D83E0F890F270E01E
:10194000687007EEFAEFFB021A61E508C3940540E0
:1019500003021A64E50875F00DA4F8A9F0742A28AA
:10196000FA74F239FBEA2405F8EB3400F98882892D
:1019700083E0700D8E828F83EAFCEBFD740512020A
:101980004C88828983E0C39406503BE0F50C8E823C
:101990008F83E024DB600E24F4600A14600724EBDC
:1019A000600314700474F68012850A82850B83A389
:1019B000A3A3A3A3A3E0A2E71324B8C0E0EA250CE5
:1019C000121A67D0E0F088828983E004F0C200D266
:1019D000017B008005C200C2010B90F296E0F8EB9B
:1019E000C3985022EB121A7960EFE82405F582E9DA
:1019F000121A74C394095012A20150D9E0C394067C
:101A000040D3D20080D3A200505AC2F08E828F837E
:101A1000E0644C7010850A82850B83A3A3A3E0A227
:101A2000E75002D2F0121716E9F874056870051233
:101A300021CD8030E875F00DA4F8A9F0742A28FAB9
:101A400074F239FBEA240C121A712448C33390F261
:101A500094F08A828B83A3A3A3A3A3A3E090F2951F
:101A6000F0121A8F02151F122468A3A3A3A3A3A325
:101A700022F582EB12246BE02275F00DA4F8A9F098
:101A8000742A28F874F239F988828983A3E02274D1
:101A9000F312032DEAFEEBFFD200C201121CC1E9D2
:101AA000F508C2F0EE2402FAEF3400FBE924DB6013
:101AB0001924F4602914602624EB604F1460352447
:101AC000FE604824FE6050021B6E8A828B83E064B5
:101AD000C67002D2F01227F2121C74021B791A1A75
:101AE000EFFB1215774003021B79A908122E3192E1
:101AF00000021B7990F29FE0707F1A1AEFFB12151B
:101B0000775076740190F29FF0806E90F29FE060C3
:101B100068122808E480EE90F2A0E070107401F0E2
:101B200090F29DE4F090F29CF090F29BF090F29C89
:101B3000E004F090F2A2E070067401F01229F28E37
:101B4000828F83A3A3E090F29AF0C4540F5407F558
:101B50000A90F2A1743DF0E50AC39406501B74008C
:101B6000250AF582740512246290F2A1809AD201AE
:101B7000742065086003021AEA8E828F83E065088C
:101B8000700AA3E090F270F0E508A3F0A201400310
:101B9000021C65E50824E0601F24FD601B1460182A
:101BA00024FE601424FD60108E828F83A3A3A3A360
:101BB000E0A2E34003021C65A200400C1221BD908C
:101BC000F288E0D2E6021C5FEE2402F508EF340052
:101BD000F5098E828F83A3A3A3E0C454F0F885088F
:101BE00082850983E0C4540F4854FC2402F9120F83
:101BF000BA90F31212022790F2781202338508820B
:101C0000850983E0543FF508C39402404AE4F5098E
:101C1000F50AF50B90F316780C1202097808790C86
:101C200012014B90F31A78081201CB90F2787808E1
:101C300012021890F2DC85CA08E4F509F50AF50BE2
:101C400078081201CB90F27C780812021890F10EFD
:101C5000E0D2E5F0120FCD90F2897402121F30F03D
:101C600012219F800CA20050051221CD8003122169
:101C7000BD02151F1221E11210BC22EA2405F8EB67
:101C80003400F98A828B83E024FE600D24FC601509
:101C900024FE602324F0602222A3E0FCE8FAE9FBA2
:101CA0007902021D59A3E090F26CF090F26B74522D
:101CB000F01220890212500212AFE8FAE9FB021E6C
:101CC0009074FA12032DEAFEEBFF8E828F83E0F50B
:101CD0000890F284E054056401600690F2A0E06090
:101CE0000312221EE50824DE600824FA600424FDA5
:101CF000705890F284E0A2E2403890F271E06421E2
:101D0000703074226508702A90F270E0F88E828F2D
:101D100083A3E068701C750800120FCD90F2DAE022
:101D200090F286F090F284122E10121C74120FD9C9
:101D3000802090F284E0C2E2F0A2E6501590F271A9
:101D4000E06508700D750820800890F284E0A2E636
:101D500040EBA9087F0102035E74F312032D1510F6
:101D6000ECA810F2EAFEEBFF12090D90F2DC85CA36
:101D700008E4F509F50AF50B78081201CB90F27C1E
:101D800078081202188E828F83A3E075F019A4F8E8
:101D9000A9F08E828F83E075F00FA4FAABF0E82AE9
:101DA000F50CE93BF50DE4F50EF50F90F31E780800
:101DB000120209780C790812014B90F322780C1268
:101DC00001CB90F278780C12021890F270E0F9A82A
:101DD00010E269600512152B807BD2F0D2F190F2EF
:101DE00099E0F9E269702490F2DAE0FCA3E0FD905A
:101DF000F274121E7F121E765002C2F090F272121E
:101E00001E7FA3A3121E765002C2F1A810E290F228
:101E100099F0A2F1400E90F277E06402600690F231
:101E20009EE0603690F26B740A121F307402F090DC
:101E3000F277E06401700690F26D122E10E290F2DB
:101E40006C12184190F26EF08E828F83A3E090F2B4
:101E50006FF0122089051002151FA2F050138E8218
:101E60008F83E0600C90F26B741A121F3074018043
:101E7000BD1221CD80DF122083C3EA98EB99221294
:101E80002083ECC398FAED99FB8E828F83A3A32263
:101E900074F712032D90F26DE0A2E2507490F28A72
:101EA000E05407F87401B800028004C333D8FCC0C2
:101EB000E0E0F508A3E0F509740378081202F8A839
:101EC00008EA28122468A3D0E0F8E058603EE490C5
:101ED000F29E121F30E0D2E4F0C2F0122EA190F276
:101EE0006DE0A2E090F2DA12207F500590F274804B
:101EF0000390F272E8F0A3E9F090F284E0C2E612F7
:101F00001F30E0A2E340241221CD801F12152B8048
:101F10001A90F2DC85CA08E4F509F50AF50B780891
:101F20001201CB90F28078081202187F0402035E3F
:101F3000F090F26D22EEC0E07E0090F2EBE0A2E0C5
:101F400050010E90F2F0E07004EED2E1FE90F2C586
:101F5000E06004EED2E2FE90F2EBE0A2E35004EE89
:101F6000D2E3FEE0A2E25004EED2E4FEE0A2E650AC
:101F700004EED2E5FE122E935004EED2E6FE90F26D
:101F800084E0A2E65004EED2E7FEEEF9D0E0FE22B5
:101F900074F512032DE9FE121F35E990F1F2F0906D
:101FA000F2E3E090F1F3F090F2D612207F90F1F49A
:101FB000E8F0A3E9F090F1F8747AF090F2D9E090AB
:101FC000F1FAF090F294E090F1FCF01213D990F154
:101FD000F6122079903BE4E49390F201F090F1EA5C
:101FE000E06401700474FD800B74526E700474F729
:101FF000800274FE90F200F090F2C9E090F1F9F0E6
:1020000090F2C8E090F1FBF090F2C7E090F202F09D
:10201000E5BE541833333354F8F890F2E9E0543FF6
:102020004890F1FDF090F1E9E090F1FEF090F2DAE5
:10203000E0F508A3E09401400890F3267808120226
:1020400009E50890F1FFF0EE90F1EDF090F26CE010
:10205000F990F1EE12219890F1F1F0903BE1E493C8
:1020600090F1F0F0903BE0E49390F1EFF07C177A80
:10207000EB7BF1120F42020F1FEAF0A3EBF02212EA
:10208000208322E0F8A3E0F92274F912032DFE90D8
:10209000F2897404F075E104790112110C120FCD6C
:1020A00012218B90F2951220F090F298E0334812B2
:1020B0001F30E0A2E0500AA31220F7601C790080D4
:1020C0001590F26F1220F790F26EE0FE70EF90F232
:1020D00097E06005790112161090F297E08E0825BE
:1020E00008F8E43400F990F28AE8F0A3E90208ABBA
:1020F000E0A2E0E433F822E01490F298F8E058907F
:10210000F297F022120B18400790F2897405F02222
:1021100090F26BE024F6605224F0600824C8704FFF
:102120007952804890F1EB741AF090F26CE090F1E3
:10213000EC12219890F1EFF0903BE1E49390F1EEF6
:10214000F0903BE0E49390F1EDF090F294E090F1A8
:10215000F0F0121F35E990F1F1F07C077AEB7BF19A
:1021600090F26CE0F9120F428005790A121F9090EC
:10217000F26DE0A2E2501190F2767403F090F289D1
:1021800014F012218B020FCD0221CD7910120B8495
:1021900090F10EE0D2E5F022F0903BE2E49322C011
:1021A00008C00990F296E4F0750841F50978081224
:1021B000040F7C007D007A2A7BF20208EE90F26D1B
:1021C0007402F090F277E4F090F289F02212219FED
:1021D0001221BD90F276E4F090F2881223510210A1
:1021E0000290F2EDE0F9600B90F2C4E0A2E650023A
:1021F00079BB22781E90F2C4E0A2E6500278C67441
:102200001C28FA90F284E0544690F2EB6008E0A2B9
:10221000E05008E8F922E0A2E050F8EAF92290F252
:1022200084E0C2E0F079000211B6EEC0E090F2DA8C
:10223000E0FE90F284E0A2E2501C90F2861222C0EE
:102240009403401290F284E0C2E2F07922122E311F
:10225000740190F30DF08E82AA8290F28C1222C744
:10226000E499F9E8496055C2F090F28CEA120ADA72
:1022700090F284E0A2E0501590F2A0E0700A90F293
:10228000851222C0940A400512221ED2F090F284D8
:10229000E0A2E6501990F2A0E0700A90F2871222B4
:1022A000C09406400990F284E0C2E6F0D2F090F2C9
:1022B000A0E0A2E0B382F050031221CDD0E0FE22D4
:1022C000E0F8EEC398C322122083EAC398F822C034
:1022D00008C00975080C750900780812040F7C0005
:1022E0007D007A787BF2122FCE05100510740190D4
:1022F000F29EF090F28412219890F298F012219FB1
:102300001221BD75080D780812040F7C007D007A3B
:102310006B7BF20208EE74F712032DE9FE1223B074
:102320001221CD121248EE60251223591201CB90D2
:10233000F2807808120218740190F29E12235190D4
:10234000F10EE0D2E5F07910120B84120FD9021FC2
:102350002BF01221E11210BC2290F2897403F0904C
:10236000F2DC85CA08E4F509F50AF50B7808227451
:10237000F712032D90F284E0D2E1F090F276E4F0CF
:102380001223591201CB90F280780812021812150C
:102390002B021F2B90F284E0A2E1500AC2E1F0A2CE
:1023A000F050031221CD221223B01221CD02124887
:1023B00090F288E0A2E6501390F284E0A2E6400B8F
:1023C000D2E6F090F2DAE090F287F02290F29CE010
:1023D000602B90F29BE0FA74012AF090F29AE013DD
:1023E00013543F5403F874F828F5827404122462DD
:1023F000C39A5009E490F2A0F090F2A2F022C00833
:1024000090F2A0E0605990F29DE004F090F29A12F0
:1024100020F074FC28F5827404122462F875F00A26
:102420008404F508E89508F890F29CE0C398400E03
:1024300090F2A1E0F9122E31E490F2A08020E02584
:1024400008F8E43400F990F29DE0FAE89AE9940083
:10245000C365D0335009E490F2A0F090F2A2F0D01E
:10246000082212246BE49322F582EB3400F58322D8
:10247000000000000000000000E942D6000000005B
:1024800000000000002274F712032DE5102409F863
:10249000E2FE08E2FFEB90F2AB12252B74AFF0EFF7
:1024A000541FA3F0EEA3F0A374121224FE75D68479
:1024B000E5AEA2E740FA75AB118C088D098C0A8D48
:1024C0000B7409780A1202E8E50AF5AD7401780880
:1024D0001202E8E508F5ACA2F05009120122E5AEBF
:1024E000A2E740FA7904122470120128E5D1A2E291
:1024F00050FAE5AE54C070FA53D1FB021F2BF0A383
:102500007442F074F2F5D375D2A32275D682EB90A3
:10251000F2A312252B74D9F0ED541FA3F0ECA3F015
:10252000A374131224FE7902022470F0EAA3F0A32C
:1025300074DFF0A32274F912032D90F2A374DFF07C
:10254000A374D9F0EBA3F0EAA3F074076C7001ED6B
:1025500070047E0080027E04ED541FF8EEC43354F4
:10256000E048A3F0ECA3F0A37413F0A31412250227
:1025700075D6828C088D09780812040F7C007D00C6
:10258000122FCE0510051079021224700208AC74C7
:10259000F712032D90F2C0E06068C2AF12127C7C8B
:1025A000057D007AB37BF212250B75E103E5E9A204
:1025B000E450FA12119153E9EFD2AFE5A1A2E092F3
:1025C000C790F2DC85CA08E4F509F50AF50B78082E
:1025D0001201CB90F2B878081201F190F2BC7808A1
:1025E00012012C501D90F2C1E0600A90F2C2E0F995
:1025F00012231680031223A7E490F2C0F0D29012A7
:1026000010A4021F2B74F712032DE990F2B3F07897
:102610002C6435700278C6E8A3F090F2C77CB57DD3
:10262000F2740312024C120B93C29012143A792CDA
:10263000120FA8120FF3121570740190F2C012233A
:102640005E1201CB90F2B87808120218021F2BEE2E
:10265000C0E0E990F2C2F0740190F2C1F090F32A68
:1026600012022790F2BC1202337933122605D0E011
:10267000FE22E490F2C1F090F32A12022790F2BCFD
:10268000120233793402260574F912032D903C00AE
:102690007CC67DF2740412026D90F2C374FCF07A71
:1026A000107B3CE0F50875090074027808120307F6
:1026B000EA2508FEEB3509FF8E828F83E0F4700374
:1026C000A3E0F490F2C37007E014F0600580D4E05A
:1026D00070047E107F3C8E828F837CD67DF27404E2
:1026E00012024C90F2D6E0940FA3E094274007909A
:1026F000F2D6E4F0A3F090F2D9E004F0D2F0122781
:10270000998E828F83A3A3E0F4F8740F587007901A
:10271000F2C474088020E8A2E2500790F2C4740466
:102720008014A2E1500790F2C474028009A2E05024
:102730000690F2C47401F0903C01E493F4700FA38E
:10274000E493F47009A3E493F47003E48002740149
:1027500090F2C50208ABEEC0E0E9FEC2F090F2C410
:10276000F0740F5E64087024D2F090F2D612290D36
:10277000F090F2D6E0F47003A3E0F4700790F2D684
:10278000E4F0A3F090F2D8E0440F8005EEF490F26C
:10279000D8F0122799D0E0FE22C008C009A2F0505C
:1027A0002390F2C3E004F0C394FC4018E4F07508F1
:1027B00014F509780812040FD2F07C007D3C7AC62B
:1027C0007BF28028750804750900780812040FC28E
:1027D000F090F2C3E0F50874027808120307741051
:1027E0002508FC743C3509FD7AD67BF2122486025A
:1027F00008F1A2F090F2C4E05004D2E6F022C2E662
:10280000F022E0FAA3E0FB228A828B837CC77DF270
:10281000740312024C0490F2C5F002281DC008C0D7
:102820000912127C750814750900780812040FD279
:10283000F07C007D3C7AC67BF212248605100510E0
:1028400090F2C3E4F00208F5C0E0C0D0E8C0E0C0F8
:1028500008C009C00AC00BC082C083C2AF90F32E6B
:10286000780812020990F2DC78081201DED2AFE596
:10287000A1A2E092C7D083D082D00BD00AD009D0D9
:1028800008D0E0F8D0D0D0E032C008C0098A088B68
:1028900009740378081202F8E5C6131313541F5481
:1028A00007F8741AB800028004C313D8FCFA85082C
:1028B000F0A4CAA8F08509F0A428FB75E40675E524
:1028C0007CD2B9EAF5DAEBF5DB0208F5C2B953E5DB
:1028D000BF2275E40675E57CD2B922EAF5DAEBF59C
:1028E000DB2290F2E0E0700478248002780990F214
:1028F000E1E028800DE024ECF0122A2B90F2DA12AD
:10290000290DF090F2E1E0C3941450E922E0240193
:10291000F0A3E0340022C2AFE990F2E0F070067C50
:10292000C07DF380047CF07D3C75A204E5A5F8E54C
:10293000A56860FBE5A5F8E5A56860FBEDF5A4ECEE
:10294000F5A3C2C775A110D2ADD2AFE5A1A2E092A6
:10295000C722C008C0098A088B09E5C65407780851
:102960001202F8AA08AB09EAF8EBF9E824FF1AE921
:1029700034FFFBE84970F00208F575CBF875CC0020
:1029800075CE00D2BB2290F2F1E0701290F2EBE033
:10299000A2E0400AE490F2F0122C51744BF022A213
:1029A000F090F2EBE0500AA2E1400FE0D2E1F080BB
:1029B00014A2E15005E0C2E180F490F2EEC3E09A87
:1029C000A3E09B500C90F2F412207990F2EE1220CA
:1029D0007922EEC0E07E6C1208FA50047E0A800F65
:1029E00090F2EBE0A2E15007122AFF60027E3F0264
:1029F0001F8A90F2EBE054AF1229FC22F0122A0158
:102A0000221229D2E990F2E9F022122AFF600890FE
:102A1000F2EBE0A2E1500A90F2E7E07004A3E0607C
:102A200004780180027800E8A2E02290F2E6E060FB
:102A30000914F0700590F0FFE4F0122AFF6019907D
:102A4000F2EEE024FFF018A3E034FFF0F9E849705B
:102A50000790F2F4E4F0A3F090F2E7E0600914F0DC
:102A60007005D2F0122EA190F2E8E0600214F0900E
:102A7000F2E4E0600214F0A3E0600214F0120B181C
:102A8000502E90F2EAE0600B14F0700790F2EBE049
:102A9000D2E6F090F2EBE0A2E0400AE0A2E65008B5
:102AA0001208FA4003122B1590F2E9E0600814F0C6
:102AB00090F2E9E07022122A0A500DC290E490F2DE
:102AC000F6122E8DD2E4800690F10EE0D2E6F09060
:102AD000F2E4E4F0A3F0A3F090F2EBE0A2E4501EE5
:102AE00090F2E9E07018122A0A4013120B18500EE7
:102AF00090F2EBE0C2E4F090F10EE0D2E6F022902A
:102B0000F2EE122083E84922C2AF122B157940124F
:102B10000B84022949122A0190F2EBE0C2E4F02270
:102B200090F2EBE0A2E0401079011209575009C27F
:102B3000AF122B0879018002D3221227561221BD31
:102B4000120FCD12065CD2AFE5A1A2E092C7C3225C
:102B500090F2EBE0A2E050157902120957500EC234
:102B6000AF90F2ECE4F0122B08790480CDD32274FC
:102B7000FA12032D8908FBEB75F003A4F8A9F07491
:102B80000628F8740539F9E8FEE9FF8E828F83E4A0
:102B90009365086003022C3FA3E493FAA2E2500974
:102BA00090F2E5E06003022C49EAA2E0500990F2BD
:102BB000E6E06003022C49EAA2E35008122AFF6013
:102BC00003022C49EAA2E4500690F2F0E0707AEA9F
:102BD000A2E1500690F2E4E0706FA908122B2040A9
:102BE000688E828F83A3A3E493F8A2E1500590F24C
:102BF000E4E4F0740190F2F0F0E490F2F1F090F27D
:102C0000EEF0A3F090F2F4F0A3122C51122E8DC22C
:102C1000E2F0E8A2E2501090F2E7740A122E8DD290
:102C2000E3F0E490F2F6F0E8A2E0500590F2E6E47A
:102C3000F0C2F0122394E50890F2ECF0C3800B0B85
:102C4000EBC394085003022B77D3021D54E490F297
:102C5000F1F090F2ED2274FA12032DE9FED2009009
:102C6000F2EDE0FFEE90F2F3F0120424021012CD28
:102C70002C1314D52C1B00CD2C15DB2C16D52C2297
:102C8000D52C36972D38C92C3BAA2D42822D4CAA23
:102C90002D577D2D5AC92C655A2D71CD2C87D52CD9
:102CA0008ED52CA5022DA91F2DAAC92CAF3A2DB067
:102CB000422DB5482DBA4E2DBF542DC5302DC934E7
:102CC0002DCB2C2DE5652DF92D122C4DF0122B6FEF
:102CD0009200022DFE122B50022E0AD2F090F2EC3E
:102CE000E064AA6019E064386014E0645A600F7907
:102CF00015122B5092F0400690F2E5741EF0A2F0EF
:102D000080CE120B184003022DFE1221BD120FCDF2
:102D100012078743804290F2EB122ED7022DFE7AE3
:102D20001E7B00D2F012299FD3022E0A7A3C80F13A
:102D30007A7880ED7A2C7B0180E97A587B02C2F0A8
:102D400080E37A087B0780F67A107B0E80F07A3079
:102D50007B2A80EA7AC07BA880E490F2F47401F0C8
:102D6000A3E4022DFD122AFF7003022DFE90F2F45F
:102D700012207F90F2EEE8F0A3E9022DFD122986E1
:102D8000807C90F2EBE0A2E04074740190F2F0F0ED
:102D9000122C4E7483806690F2EBE0A2E0405F74E8
:102DA0000190F2F0F0122C4D8053122C4DF0744C27
:102DB0006E7004D2F08002C2F0122AFF7004A2F0FA
:102DC000400A90F2F0E0A2E072F04032740190F21A
:102DD000F0F090F2E8E0701A90F2E7740AF0122333
:102DE0006F90F2EB122E10740190F29EF0E490F2CC
:102DF000F6F090F2E8740A8004E490F2F2F090F2B7
:102E0000EDE06F6003121002A200021D5490F10E5B
:102E1000E0D2E2F022EEC0E0740190F2F2F090F223
:102E2000C0E07003122C5690F2F2E0A2E0D0E0FE77
:102E30002274F912032DE9FE790374DF2EC3942F57
:102E4000500E8E0874FD2508F5827404122462F970
:102E5000122C560208AC90F2EBE4F090F2F4F0A3DE
:102E6000F090F2F3F00490F2F0F090F2EEE4F0A3C0
:102E7000F090F2E6F090F2E4F0A31229FC122F6435
:102E8000E490F2E2122E8DA2E0E433F022F090F210
:102E9000EBE022122AFF6004D2F08002C2F0A2F01E
:102EA0002290F2EBE054F3F012239490F2E7E4F076
:102EB0000402071090F2EB12070B790212275690CA
:102EC000F2C5E090F2EB6009E0540CF912264F8055
:102ED00003122ED7020653E0540CF9122316229047
:102EE000F2F3E024EC601124FE600624886009807F
:102EF0002090F2E6741E801D90F2EBE054F3F09007
:102F0000F2E7E4F090F2E6740AF090F2E4741E80C6
:102F10000890F2E6E4F090F2E4122E8DC2E0F0792F
:102F20000812275690F2E6E0600590F0FFE4F0907A
:102F3000F2C5E0600512267280031223A774019087
:102F4000F2E2F0122F64D2911229D2E990F2E91242
:102F50002E8DC2E6F090F2F3E06422600690F2EA71
:102F60007403F0221208B1EA90F2E3F022EEC0E01E
:102F7000E9FE740F5E14600914601224FE601F8065
:102F80002790F2EBE4F07971122E15802B90F2EB82
:102F900012070BC2917940120B84D290801A90F2E2
:102FA000EB7401F0798E80E090F2EBE0C2E0122940
:102FB000FC90F2EBE0D2E6F01208FA400D90F2C677
:102FC000E064AA600579C5122E15D0E0FE2274FADD
:102FD00012032DE5102406F8E2FE08E2FF8A828B38
:102FE000838003ECF0A3EEF8EFF9E824FF1EE93448
:102FF000FFFFE84970ED7F0102035EFFFFFF243F02
:1030000002309DFFFFFFFFFFFFFFFFFFFFFFFFFFFE
:10301000FFFFFFFFFFFFFFFFFFFFFFFFFFFFFFFFC0
:10302000FFFFFFFFFFFFFFFFFFFFFFFFFFFFFFFFB0
:10303000FFFFFFFFFFFFFFFFFFFFFFFFFFFFFFFFA0
:10304000FFFFFFFFFFFFFFFFFFFFFFFFFF02309DBE
:1030500000000080FB1230ACB90003023097E4900E
:10306000F1FF787979058002F0A3D8FCD9FA90F6BF
:1030700077AA82AB839030AF780379018015E4930F
:10308000A3AC82AD838A828B83F0A3AA82AB838CAC
:10309000828D83D8E9D9E712322F12305075D000D3
:1030A0007581207510FF7511F102305579012201EB
:1030B000FFFF43AE0100220043AE0222CAC0E0E699
:1030C000F0A308DAFAD0E0FA22CAC0E0E493A3C57C
:1030D00082CCC582C583CDC583F0A3C582CCC58211
:1030E000C583CDC583DAE5D0E0CA22600D08C6A24B
:1030F000E713C618C613C6D5E0F322251010AF0893
:10310000F510400215118008F51040021511D2AFDC
:1031100022C0D0251010AF08F5105002051180080C
:10312000F51050020511D2AFD0D0222510F5821033
:10313000AF08F510400215118008F5104002151176
:10314000D2AF851183222510F582E43511F5832253
:103150002510C582C0E0E51134FFC583C0E0E5104D
:10316000C3958224F9F8E4C5A8858311858210C52A
:10317000A8E8CEF0A3E520F0A37808E608F0A3DEE7
:10318000FAEFF0A3E58124FBF8E608F0A3E608F0E7
:10319000A30808E608F0A3E608F0A315811581D07E
:1031A000E0FED0E0F815811581E8C0E0EEC0E02235
:1031B000851183851082E0A3FEE0A3F5207808E066
:1031C000A3F608DFFAE0A3FFE0A3C0E0E0A3C0E0BD
:1031D000E0A3C0E0E0A3C0E0E4C5A8858210858339
:1031E00011C5A8D083D0822274028000C0E0F4040C
:1031F00012312BD0E01230BC22D083D082C5F0E453
:1032000093A3C5F0C395F0F5F0E493A3C395F04004
:1032100005E5F0048001E475F002A42582F582E55D
:10322000F03583F583E493A3C0E0E493C0E022C2C9
:10323000AF12379E90F62EE064BB600A12329EE910
:10324000600412327A22123AD612352AE490F1FF43
:10325000F043C908800C12327312343FE9600374E2
:1032600001F0E060F112329EE9600412327E221217
:1032700030002275C9A075C950220200D322C08235
:10328000C08390F1FFE0600474AA8001E490F62E00
:10329000F01237B343C903E5C943C90880FE74F58A
:1032A0001231507A007B00902FFEE0F508A3E0F584
:1032B000098A828A837EFE7F2FE0F91232E2A3EE32
:1032C00024FF1EEF34FFFFEE7001EF70ECE5086A9B
:1032D0007003E5096B70047901800279007F0402B4
:1032E00031B0EEC0E0E96BFB7E088005ECFAEDFB47
:1032F0001EEE601EEAFCEBFDECC333FCED33FD7407
:10330000805BFBE47001EB60E374056CFA74806D24
:1033100080DDD0E0FE2274F5123150740B1231467C
:10332000E0FEA3E0FFEB90F200F0EA90F201F0740F
:10333000DF90F202F074AF90F203F0EF541F90F2BE
:1033400004F0EE90F205F0741290F206F0744290E0
:10335000F207F074F2F5D575D400E5AEA2E740FAB5
:1033600075AB118C088D098C0A8D0B7409780A12C3
:1033700030EBE50AF5AD740178081230EBE508F59D
:10338000AC90F677E060091230B2E5AEA2E740FA01
:1033900043D6011230B8E5D1A2E050FA74C055AE60
:1033A00070FA53D1FE7F040231B0C082C083EB902B
:1033B000F208F0EA90F209F074DF90F20AF074D9A2
:1033C00090F20BF0ED541F90F20CF0EC90F20DF037
:1033D000741390F20EF0744290F20FF074F2F5D381
:1033E00075D20843D602D083D08222C082C08374B3
:1033F000DF90F208F074D990F209F0EB90F20AF045
:10340000EA90F20BF0ED541F448090F20CF0EC9037
:10341000F20DF0741390F20EF0741290F20FF0743B
:10342000F2F5D375D20875D68243D602D083D08206
:1034300022C082C083E990F677F0D083D0822274D4
:10344000F512315074FF1230FBE485108285118330
:10345000F0F508123AD18A0A8B0B7402250AFEE4B1
:10346000350BFF750900740A90F628F0E490F629F0
:10347000F090F62AF090F62BF090F62CF0A3F09056
:10348000F6267410F0A374F2F090F6247490F0A372
:1034900074F5F0800C90F628E014F0E070037509E4
:1034A0000274026509607712327385108285118378
:1034B000AA82AB83123924E960DBE5091231F900F5
:1034C00001A134C734E4348E828F83E0640670D166
:1034D000740A90F628F079867A787BF612387B7534
:1034E000090180BD8E828F83E064057018123AD185
:1034F000851082851183E0F9EA2407FAEB3400FB9A
:10350000123571809CE06409709775080175090295
:1035100079897A787BF612387B1237398083A9084B
:1035200074011231117F040231B022C082C0839035
:10353000F62BE02980318A828B83E0C0E090F6246C
:10354000E0F8A3E0F5838882D0E0F08A828B83A341
:10355000AA82AB8390F624E02401FCA3E03400FDB2
:1035600090F624ECF0A3EDF0E91970CAD083D08274
:103570002274F712315074FF1230FBEAFEEBFF8920
:10358000098E828F83E0547FFA74FF851082851143
:1035900083F090F629E06A705A74FA2509F98E8250
:1035A0008F83A3AA82AB8312352B90F629E0448047
:1035B000F508740A90F628F090F629E090F62AF0C3
:1035C00090F629E004F0E0C394804002E4F08E829B
:1035D0008F83E0A2E75030123620E96011E490F6C4
:1035E0002BF090F6247490F0A374F5F0801990F607
:1035F0002A800F90F62AE06A7005E04480800690E9
:10360000F629E0547FF508A908851082851183AA60
:1036100082AB8312387B74011231117F020231B008
:1036200074F31231507508917509F57E907FF57A23
:10363000007B0090F62BE0F50A8E828F83E0F91272
:1036400032E2A3AE82AF83150AE50A70ECEA70019C
:10365000EB6026790080708A82AE82EEFC7D00AA43
:1036600008AB091236CCE5082EF508E5093400F55B
:103670000980067508247509F6C3E5089424E50950
:1036800094F65041A808A90988828983A3A3A3A31B
:10369000A3E0FAE82406F508E93400F509888289F0
:1036A00083E01231F90007B9367336733673365733
:1036B000367936B936B9367936E50824FBF508E5AA
:1036C0000934FF80AA79017F060231B074F4123107
:1036D00050EAFEEBFF8C088D09750C0080448E8249
:1036E0008F83E0C0E090F626E0F8A3E0F5838882BF
:1036F000D0E0F08E828F83A3AE82AF8390F626E077
:103700002401F8A3E03400F990F626E8F0A3E9F0EC
:1037100090F626C3E09410A3E094F64003123739E4
:10372000050C850C0AC3E50A9508E49509A2D26543
:10373000D03340AA7F050231B074F712315090F6B1
:1037400026E0C39410F508A3E094F2F50912327351
:10375000E5087002E509602690F62CC3E094FFA30B
:10376000E0942F501978081231E890F62CE0FCA371
:10377000E0FD7A107BF2123316740212311190F6CA
:10378000267410F0A374F2F090F62CE02508F0A354
:10379000E03509F07F020231B07A107BF222C0825C
:1037A000C083903C007C2E7DF674041230C9D08317
:1037B000D0822274F71231501237998A088B09AEE1
:1037C00008AF097810793C7A007B008023888289D1
:1037D00083E0C0E0EE2AF582EF3BF583D0E0F0888D
:1037E000828983A3A882A983EA24010AEB3400FB1F
:1037F000C3EA94F0EB9403A2D265D03340CF7508AE
:103800000475090078081231E87C007D3C7A2E7B33
:10381000F612331674021231117900123431750820
:10382000F075090378081231E87C107D3CEEFAEF60
:10383000FB123316740212311179011234317F02F6
:103840000231B0C082C083E990F634F08A828B8363
:10385000E090F635F0903BE0E49390F636F0903B44
:10386000E1E49390F637F0903BE2E49390F638F081
:103870008A828B83E0F9D083D0822274F81231508F
:10388000E9FF740490F639F0EF90F63AF0E490F620
:103890003BF090F63CF079511238437A0A1238DA4C
:1038A0007F010231B074F81231507E00E5E9A2E7E1
:1038B000500A0E90F674E004F053E97FE5E9A2E6C1
:1038C00050117E0190F675E004F053E9BF1239C73C
:1038D000123982EEF97F010231B074F8123150E9E9
:1038E000FEEAFF1239C7EF90F632F0EE90F633F0B1
:1038F00075E10490F632E0F8740128FCE43400FD30
:103900007A327BF61233AA75E103E5E9A2E450FAB4
:103910001238A553E9EFE5D1A2E150FA53D1FD7F6A
:10392000010231B074F6123150EAFEEBFF750A0065
:103930007508607509EA90F676E07003123982A87E
:1039400008A90974FF28F50874FF39F509C3E8943C
:1039500002E994004006E5E9A2E450E3E5E9A2E4C7
:1039600050191238A5E9700D750A0190F632E0146D
:103970008E828F83F053E9EF43D602A90A7F0302B8
:1039800031B074F71231507A00801574BEC0E08AED
:1039900008E5082432F582E434F6F583D0E0F00A35
:1039A000EAC3941440E57C407D007A327BF6123302
:1039B000EB539BFCE59B53E9EF75E102740190F634
:1039C00076F07F020231B0C082C08375E10475E1F8
:1039D0000190DF3BE0640170F875D68253D1FD534E
:1039E0009BFCE59B53E9EFE490F676F0D083D08220
:1039F0002253BEFBE5BEA2E650FA53C6BF53C6F83B
:103A0000E5C643BE0422C082C08374D390DF00F0B9
:103A1000749190DF01F074FF90DF02F0740490DF86
:103A200003F0744590DF04F0E490DF05F074029039
:103A3000DF06F0740C90DF07F0E490DF08F0745CB0
:103A400090DF09F0745890DF0AF0749D90DF0BF05E
:103A5000740E90DF0CF0743B90DF0DF0747390DF08
:103A60000EF074A390DF0FF0748C90DF10F0E490F0
:103A7000DF11F0740790DF12F0743C90DF13F074E4
:103A80001490DF14F0741D90DF15F0741C90DF1695
:103A9000F074C790DF17F0744090DF18F074B290A4
:103AA000DF19F074B690DF1AF0741090DF1BF07419
:103AB000EA90DF1CF0740A90DF1DF0E490DF1EF046
:103AC000741990DF1FF074FF90DF2EF0D083D08246
:103AD000227A327BF622C082C0831239F1123A0672
:103AE00074FF90DF2EF0740190DF05F0740290DF18
:103AF00006F075E10475E10190DF3BE0640170F8C8
:103B0000D083D08222FFFFFFFFFFFFFFFFFFFFFFF9
:103B1000FFFFFFFFFFFFFFFFFFFFFFFFFFFFFFFFB5
:103B2000FFFFFFFFFFFFFFFFFFFFFFFFFFFFFFFFA5
:103B3000FFFFFFFFFFFFFFFFFFFFFFFFFFFFFFFF95
:103B4000FFFFFFFFFFFFFFFFFFFFFFFFFFFFFFFF85
:103B5000FFFFFFFFFFFFFFFFFFFFFFFFFFFFFFFF75
:103B6000FFFFFFFFFFFFFFFFFFFFFFFFFFFFFFFF65
:103B7000FFFFFFFFFFFFFFFFFFFFFFFFFFFFFFFF55
:103B8000FFFFFFFFFFFFFFFFFFFFFFFFFFFFFFFF45
:103B9000FFFFFFFFFFFFFFFFFFFFFFFFFFFFFFFF35
:103BA000FFFFFFFFFFFFFFFFFFFFFFFFFFFFFFFF25
:103BB000FFFFFFFFFFFFFFFFFFFFFFFFFFFFFFFF15
:103BC000FFFFFFFFFFFFFFFFFFFFFFFFFFFFFFFF05
:103BD000FFFFFFFFFFFFFFFFFFFFFFFFFFFFFF00F4
:103BE00079B105FE13120213FFFFFAFFFFFFFFFF7B
:103BF000FFFFFFFFFFFFFFFFFFFFFFFFFFFFFFFFD5
:103C0000FFFFFFFF000000000000000000000000B8
:103C10007000FE437000FE447000FE457000FE46DA
:103C20007000FE477000FE487000FE497000FE4ABA
:103C30007000FE4B7000FE4C7000FE4D7000FE4E9A
:103C40007000FE4F7000FE507000FE517000FE527A
:103C50007000FE537000FE547000FE557000FE565A
:103C60007000FE577000FE587000FE597000FE5A3A
:103C70007000FE5B7000FE5C7000FE5D7000FE5E1A
:103C80007000FE5F7000FE607000FE617000FE62FA
:103C90007000FE637000FE647000FE657000FE66DA
:103CA0007000FE677000FE687000FE697000FE6ABA
:103CB0007000FE6B7000FE6C7000FE6D7000FE6E9A
:103CC0007000FE6F7000FE707000FE717000FE727A
:103CD0007000FE737000FE747000FE757000FE765A
:103CE0007000FE777000FE787000FE797000FE7A3A
:103CF0007000FE7B7000FE7C7000FE7D7000FE7E1A
:103D00007000FE7F7000FE807000FE817000FE82F9
:103D10007000FE837000FE847000FE857000FE86D9
:103D20007000FE877000FE887000FE897000FE8AB9
:103D30007000FE8B7000FE8C7000FE8D7000FE8E99
:103D40007000FE8F7000FE907000FE917000FE9279
:103D50007000FE937000FE947000FE957000FE9659
:103D60007000FE977000FE987000FE997000FE9A39
:103D70007000FE9B7000FE9C7000FE9D7000FE9E19
:103D80007000FE9F7000FEA07000FEA17000FEA2F9
:103D90007000FEA37000FEA47000FEA57000FEA6D9
:103DA0007000FEA77000FEA87000FEA97000FEAAB9
:103DB0007000FEAB7000FEAC7000FEAD7000FEAE99
:103DC0007000FEAF7000FEB07000FEB17000FEB279
:103DD0007000FEB37000FEB47000FEB57000FEB659
:103DE0007000FEB77000FEB87000FEB97000FEBA39
:103DF0007000FEBB7000FEBC7000FEBD7000FEBE19
:103E00007000FEBF7000FEC07000FEC17000FEC2F8
:103E10007000FEC37000FEC47000FEC57000FEC6D8
:103E20007000FEC77000FEC87000FEC97000FECAB8
:103E30007000FECB7000FECC7000FECD7000FECE98
:103E40007000FECF7000FED07000FED17000FED278
:103E50007000FED37000FED47000FED57000FED658
:103E60007000FED77000FED87000FED97000FEDA38
:103E70007000FEDB7000FEDC7000FEDD7000FEDE18
:103E80007000FEDF7000FEE07000FEE17000FEE2F8
:103E90007000FEE37000FEE47000FEE57000FEE6D8
:103EA0007000FEE77000FEE87000FEE97000FEEAB8
:103EB0007000FEEB7000FEEC7000FEED7000FEEE98
:103EC0007000FEEF7000FEF07000FEF17000FEF278
:103ED0007000FEF37000FEF47000FEF57000FEF658
:103EE0007000FEF77000FEF87000FEF97000FEFA38
:103EF0007000FEFB7000FEFC7000FEFD7000FEFE18
:103F00007000FEFF7000FE007000FE017000FE02F7
:103F10007000FE037000FE047000FE057000FE06D7
:103F20007000FE077000FE087000FE097000FE0AB7
:103F30007000FE0B7000FE0C7000FE0D7000FE0E97
:103F40007000FE0F7000FE107000FE117000FE1277
:103F50007000FE137000FE147000FE157000FE1657
:103F60007000FE177000FE187000FE197000FE1A37
:103F70007000FE1B7000FE1C7000FE1D7000FE1E17
:103F80007000FE1F7000FE207000FE217000FE22F7
:103F90007000FE237000FE247000FE257000FE26D7
:103FA0007000FE277000FE287000FE297000FE2AB7
:103FB0007000FE2B7000FE2C7000FE2D7000FE2E97
:103FC0007000FE2F7000FE307000FE317000FE3277
:103FD0007000FE337000FE347000FE357000FE3657
:103FE0007000FE377000FE387000FE397000FE3A37
:103FF0007000FE3B7000FE3C7000FC3D7000FC3E1B
:10400000FFFFFFFFFFFFFFFFFFFFFFFFFFFFFFFFC0
:10401000FFFFFFFFFFFFFFFFFFFFFFFFFFFFFFFFB0
:10402000FFFFFFFFFFFFFFFFFFFFFFFFFFFFFFFFA0
:10403000FFFFFFFFFFFFFFFFFFFFFFFFFFFFFFFF90
:00000001FF
