:10000000023000FFFFFFFFFFFFFFFFFFFFFFFFFFCB
:10001000FFFFFFFFFFFFFFFFFFFFFFFFFFFFFFFFF0
:10002000FFFFFFFFFFFFFFFFFFFFFF0212D9FFFFF0
:10003000FFFFFFFFFFFFFFFFFFFFFFFFFFFFFFFFD0
:10004000FFFFFFFFFFFFFFFFFFFFFF02134AFFFF5E
:10005000FFFFFFFFFFFFFFFFFFFFFF02282EFFFF55
:10006000FFFFFFFFFFFFFFFFFFFFFF02130AFFFF7E
:10007000FFFFFFFFFFFFFFFFFFFFFF021325FFFF53
:10008000FFFFFF020C8F00000080FB1200E2B900AE
:10009000030200CDE490F0FF78F879028002F0A32B
:1000A000D8FCD9FA90F2F6AA82AB839000E5783DAD
:1000B00079018015E493A3AC82AD838A828B83F0AF
:1000C000A3AA82AB838C828D83D8E9D9E7120AD3A5
:1000D00012008675D0007581207510FF7593F002AF
:1000E000008B7901220106060606060604070707AB
:1000F000070707040000DFBE0007204201102700A9
:100100000000000000B80B000078ECFFFF64000066
:100110000048F4FFFFFF000000A08601000001007E
:1001200000FF43AE010022FF43AE0222C008C3E03D
:1001300096F50808A3E096420808A3E0964208084E
:10014000A3E09645087001D3D00822080808EAC049
:10015000E0EBC0E086F0E7A4FA180986F0E7A42AED
:10016000FA180986F0E7A42AFA180986F0E7A42A03
:10017000FA1986F0E7A4FBE5F02AFA190886F0E7F9
:10018000A42BFBE5F03AFA190886F0E7A42BFBE56F
:10019000F03AFA18180986F0E7A4C5F02BFBE43A08
:1001A000FA1908E7C5F0C6A426F6E5F03BFBE43AE9
:1001B000FA1886F0E7A4F6E5F00826F6E43B08F620
:1001C000E43A08F6D0E0FBD0E0FA22E026F608A3F5
:1001D000E036F608A3E036F608A3E036F622E0267D
:1001E000F008A3E036F008A3E036F008A3E036F00C
:1001F00022C3E0C696F608A3E0C696F608A3E0C6BA
:1002000096F608A3E0C696F622E0F608A3E0F60804
:10021000A3E0F608A3E0F622E6F008A3E6F008A3C0
:10022000E6F008A3E6F022E0FAA3E0FBA3E0FCA3DB
:10023000E0FD22EAF0A3EBF0A3ECF0A3EDF022CA7C
:10024000C0E0E6F30908DAFAD0E0FA22CAC0E0E03A
:10025000A3C582CCC582C583CDC583F0A3C582CC9E
:10026000C582C583CDC583DAE6D0E0CA22CAC0E024
:10027000E493A3C582CCC582C583CDC583F0A3C555
:1002800082CCC582C583CDC583DAE5D0E0CA22B968
:100290000010BB0008E88AF084F8AAF022E4FBC84A
:1002A000FA22EB70227B10C833C8C933C933500718
:1002B000C39AC3DBF280069A50012ADBEAC833F402
:1002C000C8C933F4C9FA2275F008E4C833C8C93381
:1002D000C933C99AC99B5004C92AC93BD5F0ECFB64
:1002E000C833F4C8E4C9FA22600D08C6A2E713C6F1
:1002F00018C613C6D5E0F322600C08C6C313C6188F
:10030000C613C6D5E0F422700422600D18C6C333AC
:10031000C608C633C6D5E0F41822C0E0E8C0E0E560
:100320008124FCF8E6A2E7D0E0F8D0E022D083D028
:10033000822510F8C510C39824FBCEF208E520F200
:1003400008E9C0E07908E709F208DEFAD0E0F9EF41
:10035000F208D0E0FED0E0F208EEF208E473A81054
:10036000E2FE08E208F520E9C0E07908E208F709B2
:10037000DFFAE208FFD0E0F9E208C0E0E208C0E0FE
:10038000881022C0D0C0F088F02510F8C510C3989E
:1003900024F3C0E0E5F0F208E9F208EAF208EBF233
:1003A00008D0E0FB7908E709F208DBFAE582F208F9
:1003B000E583F208D0E0F208D0E0F208E520F20888
:1003C000ECF208EDF208EEF208EFF222A810E208D3
:1003D000C0E0E208C0E0E208FAE208FB7908E208BF
:1003E000F709DFFAE208F582E208F583E208F5F0A2
:1003F000E208F5D0E208F520E208FCE208FDE20898
:10040000FEE208FF8810D0E0F9D0E0F8D0E03274C6
:10041000028000C9C0E0E510C399F510C912023F7F
:10042000D0E0F922D083D082CCC0E0E493A3600670
:1004300012044E1470FAE493A3600612046D147053
:10044000FAD0E0FCE493A3C0E0E493C0E022C0E073
:10045000E493A3D39C5010E493A3C39C400AD0E040
:10046000D0E0D0E0020441A3A3A3D0E022C0E0E4A6
:1004700093A36C7009D0E0D0E0D0E0020441A3A3C4
:10048000D0E022070C0B0C0E790D3B930E73030F7B
:10049000A3A2108CF81100341AB656151D16161C9E
:1004A0006C1CEAA91D0A0A1E00001F191117C74378
:1004B00018404019B29100D3019102FF0304044592
:1004C0000500063A070C0800095C0A580B9D0C0E43
:1004D0000D3B0E730FA3108C11001206130C1404A5
:1004E000151D161C17C7184019B21AB61B101CEFA1
:1004F0001D0D1E191F192EFF040810FA060C1422D8
:100500003D3E3F40393800000371050011040312DD
:100510000003AA0D04100600380D045A100410132D
:100520000303030311140303150303030303121648
:100530001718035A3B4236CBC5C9AFB0B5BABF0393
:10054000E5AA4CA903032203030338575990F2F696
:10055000E06002D2902290F102E0602124F7703234
:1005600090F100E02493C3941A500A12063190F1DE
:1005700002740AF022E0C394064055805090F100C6
:10058000E02477C3942F50451205D190F1027401F5
:10059000F0221205D190F101E0C333F890F100E0B0
:1005A00024F5C3942750057401488009E024CEC384
:1005B0009419500CE890F101F090F102E004F0225F
:1005C000E0C39406400A90F0FFE0C2E5F012063C5A
:1005D0002290F0FFE0D2E5F07AA07B0F12286F2284
:1005E00012063190F0FFE0A2E6500CC2E6F01205D0
:1005F0005690F100E4F022A2E55006C2E5F00206B2
:100600003C02063C90F100E004F090F0FFE0C2E50F
:10061000F04441F07AE87B0390F102E014C39409BE
:1006200050047AF41B1B12286F75E2007901020B4B
:1006300027120ABB50031228B2C2942290F102E49E
:10064000F090F100F090F101F090F0FFE0C2E0F0E6
:10065000C29422740190F2F6F002066690F0FFE078
:10066000549CF002063C120ABB500E90F0FFE0547E
:1006700003700612054D1207082290F0FFE0A2E178
:10068000501790F103E004F0C39402400CE4F090A2
:10069000F0FFE0C2E1F012054D2290F102E0640AA1
:1006A000702012063190F101E024D6C394BC5007AB
:1006B000E0F9122E08400690F104E004F012063C26
:1006C000803C90F2EBE0A2E0502D90F102E0C39468
:1006D00002402490F101E0701EC2AFC290120708E0
:1006E00012063C90F0FFE0549FF0D2E1F0D2AFE56B
:1006F000A1A2E092C7800790F0FFE0C2E1F00206FD
:100700006612063C1207082290F10EE0D2E0F022B9
:1007100090F2F6F02274F912032DEAFEEBFF1213A9
:10072000DA8A088B0990F2D61227E890F2E3E033D8
:100730003354FC24208E828F83F0A3E508F0A3E5D8
:1007400009F0A3122062A37493F0A37403F0A374BE
:10075000AAF0A3AE82AF83903BE012077B903BE10F
:1007600012077B903BE212077B121F1EE912077DE6
:1007700090F2D9E08E828F830208ABE4938E828F51
:1007800083F0A30EAF832274F912032DE51024F336
:10079000F510AA10AB93FEEBFF750800C2AFC29034
:1007A0001207157AB57BD11229387AB57BD1122977
:1007B000387AB57BD112293879A71207FD75090D52
:1007C00012121F8E828F83E0F92508F5081207FDAB
:1007D0008E828F83A3AE82AF831509E50970E1A9EC
:1007E000081207FD438042D290D2AFE5A1A2E09269
:1007F000C7122B7CE510240DF5100208AC74FA1218
:10080000032DE9FE7F80799C120826EE5F60047953
:100810001F8002793E120826EFC313FF70ED797D29
:10082000120826021D3D74FA12032DE9FF12084D2D
:100830005380BD7A337B001229381FEF70EF7E1F83
:1008400012084D12084D1EEE70F6021D3D43804207
:100850007A337B001229382274F912032D1510E91E
:10086000FDEAFCEBFEE5BBA810F2E5BAF243B430BA
:10087000ED4C4EF5B6E5B4A2E750FAE5BAF508E559
:10088000BBF9E5082400E439F50943B430EC13134F
:1008900013541FFCC3940340011C7408C39C7808C4
:1008A0001202F8AA08AB0905108001F07F020203CA
:1008B0005EC008C0097B0F7A3079001208588A0898
:1008C0008B09740678081202F8E50875F006A4F59D
:1008D00008A8F075F006E509A428A808F97A0A7BAB
:1008E0000012028FE824FFFAE934FFFB8007122F81
:1008F000C605100510D009D00822EEC0E0E9FE9030
:10090000F105E06003C3804BC2AFC2917944120B82
:1009100027C2901228B874884E90F105F090F10A21
:1009200074B9F0A37404F090F108F0A37401F0908E
:10093000F105E0A2E090F10C50047450800274A024
:10094000120A7D7A047B011228C1D2AFE5A1A2E090
:1009500092C7D3D0E0FE2274F712032DEAFEEBFF1C
:10096000890890F105E0A2E250667B007A30798038
:100970001208588A0A8B0BC3EE950AEF950B503E6E
:1009800090F106E004F0640A704690F105E0A2E4FC
:1009900090F10C502FE024CDF8A3E034FFF9C3E828
:1009A0009477E99400501790F107E004F0C3940B9A
:1009B000501790F10CE0240FF0A3E03400F090F118
:1009C00006E4800BE508120A7D90F105E0C2E2F032
:1009D000021F1490F108120AB443804290F10C12E5
:1009E0002AE8600D90F10CE024FFF0A3E034FFF062
:1009F0002290F105E0A2E35034A2E1500CD2E2F0E3
:100A000090F107E4F090F106F090F10A7461F0A320
:100A1000742FF090F1087482120A7D90F10C74D456
:100A2000120A7D90F105E054D74410F022A2E45060
:100A30002A90F10A74FCF0A3740BF090F10874563C
:100A4000F0A37402F090F10C74A5F0A37403F0907D
:100A5000F105E054E74424120A7D22A2E5501DA2CC
:100A6000E05005122EA78007A2E15003122ED2906B
:100A7000F105E4F053E5BFD290122B7C22F0A3E401
:100A8000F02290F105E0A2E75006C2E7F00209D398
:100A9000D2E7F090F10A120AB490F105E0A2E0501A
:100AA00008C286792A7A788006C28179057A5A7BCB
:100AB000000209571227E81228C12290F105E070C0
:100AC00004D2F08002C2F0A2F022122B7C90F10539
:100AD000E4F02290DF36E06491700843C90343C913
:100AE0000880FE12126043F20143C908D2AF1229F6
:100AF00060120C1A12266E120ACA1207011211F3A2
:100B0000122E491222B4D2F012116E90F2C4E0F902
:100B1000122F6012123812069A120C3012144B1255
:100B20002575120B3E80EFE9F4F890F10EE058F0D5
:100B3000E490F10FF02290F10EE054CF80F1EEC07E
:100B4000E090F2C0E0A2E0B3C0D0120ABB92F01273
:100B5000031A158182F05051C2AFE490F10FF012E8
:100B6000121F90F10EE054546454700ED2917E0323
:100B7000C290740190F10FF0801DE024F3600E2408
:100B8000F8600624F0600A800C7E0280E57E018019
:100B9000067E0080027E0490F10FE0600A12141FAE
:100BA000EEF9120BAD8002D2AFD0E0FE22740269E2
:100BB00060057403697062E5D5F8E5D4FCE5D6FDFF
:100BC00043D681740269700B74F290F305F0A3743C
:100BD000F7800974F290F305F0A374FEF074F3F556
:100BE000D575D40575D601E5A5FAE5A56A60FB4380
:100BF000C70274044942BED2AFE5A1A2E092C70089
:100C0000000090F10FE0600875D7010043870100F4
:100C100053C7FD88D58CD48DD62243C68090F10E63
:100C2000E4F022120DA050077A627BF11215B42273
:100C300074F712032D90F11BE0600814602E14600D
:100C400048804990F119E090DF2EF090F110E0908B
:100C5000DF05F090F111E090DF06F012102E90F118
:100C60001B7403F0120FE0120FA5802090F2DC78C5
:100C70000812020912163890F1151222ACEB99F9FC
:100C8000C3E894A1E9940F50DE120C23021F14C094
:100C9000E074EF120383C2AF759B00E5E9A2E55053
:100CA0001090F11BE06403704590F10EE0D2E480F7
:100CB0003CE5E9A2E450371211344032120D1F9086
:100CC000F11BE0F87402686005740368702090F10D
:100CD00012E06401701890F11B7401F090DF12743F
:100CE00007F090F2DC7808120209120ED0F075E9D4
:100CF0000053BEFCD2AFE5A1A2E092C77F0402037D
:100D0000CC90F11CE0FCA3E0FDA31227E8ECF8EA8C
:100D1000C398F9C3EC9AED9B4004744129F92274FD
:100D2000F912032D90F112E0640170047F0780072F
:100D300090F1A2E02403FFC200120D01E924E2F8C1
:100D4000EFC3984004E8FFD200120D01E9C39F40B1
:100D5000387E0080258E0874A22508F58274F11271
:100D60001A5DC0E090F11CE0F8A3E0F5838882D022
:100D7000E0F07A1C7BF11210F60EEEC39F5006EEE7
:100D8000C3944040D0A200501412155675E104904F
:100D9000DF3BE0640170F8740190F114F00208ACDC
:100DA00074F512032D151015101510E59AA2E09296
:100DB00000C20190F11EA810E0F2A308E0F218E2D0
:100DC000FA08E2FB90F11CE06A7003A3E06B700389
:100DD000020E81121556E510F50C85930D90F11257
:100DE000E064017005750A05800D18120EC7F50A3A
:100DF000AA0CAB0D1210F6120D01E9F87441C3985C
:100E0000C0E0E5102402F8D0E0F2850A828582086D
:100E1000E5082402FEE43400FFE29EE49FC365D0AF
:100E200033500BA20092F0121057C3020EBCE50A19
:100E300090F162F0750A01801B120EC7C0E0746267
:100E40002AF58274F1122451D0E0F0AA0CAB0D12F5
:100E500010F6050A850A82AA82C3EE9AEF9400C3AF
:100E600065D033A81050D290F11EE2F008A3E2F052
:100E700074642508F58274F1121A5DA2E75002D25B
:100E80000190F11E12206890F11CE0687003A3E04D
:100E900069701090F114E0600A12102ED200E490F4
:100EA000F114F0A201500C90F2DC78081202091241
:100EB0000ED0F0A20092F0121057A20105100510FA
:100EC00005107F0602035EE2F58208E2F583E02268
:100ED00085CA0AE508250AF8E5093400F990F115F4
:100EE000E8F0A3E92274F712032D8908EAFEEBFF6C
:100EF0008C09E59AC2AF121435120F968E828F8339
:100F0000E509F0A3E50812182AF50AC39441502513
:100F1000E50A2401FCE43400FDEEFAEFFB1224F1B3
:100F200075E103E5E9A2E450FA12113453E9EF90B8
:100F3000F11B7402F0D2AFE5A1A2E092C7790212D0
:100F400010AF121085120F8F021F14EEC0E01210A6
:100F50005F79021210AF121069D0E0FE22EEC0E0FD
:100F600012105F12108590DF127407F0D0E0FE229D
:100F700012103A90F11B7404F00211211214351270
:100F80000F96120B3690F11B7402F0120F8F221283
:100F9000104775E1022275E10475E10190DF3BE045
:100FA000640170F82290F11BE0602D90F1E8E0F907
:100FB0001228FC90F1E7E090DF12F090F11B74032F
:100FC000F01214351221C6120F4B120F96120FE0B9
:100FD000E490F114F012112190F10EE0D2E4F0222D
:100FE00090DF1CE090F1E4F090DF1DE090F1E5F07F
:100FF00090DF1EE090F1E6F02290F11BE0640370B8
:101000002C12143575E10490DF3BE0640170F89018
:10101000F1E4E090DF1CF090F1E5E090DF1DF0904E
:10102000F1E6E090DF1EF0120B36120F8F22121045
:101030003A12112175E102021047121435539AFE3B
:10104000759100120F9622759B0075E90043D60238
:10105000759131439A0122A2F0500312104722E900
:1010600090F111F090DF06F02290F1127401F0A3DC
:1010700074071210A07404F0A37444F090DF02749B
:1010800005F002102E90F112E4F0A374401210A0AB
:101090007407F0A37445F090DF0274FFF002102E85
:1010A000F0FC7D007AA27BF112251B90DF032274F5
:1010B000F912032DE9FC74026C70047E0080027E3C
:1010C00001788379047D118E08E82508F582E912FC
:1010D0002451A3E493C0E088828983E493F5827568
:1010E00083DFD0E0F0E82403080808E93400F91DA4
:1010F000ED70D40208AC8A828B83E02401F8A3E06F
:101100003400F98A828B83E8F0A3E9F0C3E89462A3
:10111000E994F1400B8A828B837420F0A374F1F080
:101120002290F11C7420F0A374F1F0A37420F0A3BA
:1011300074F1F022C020C200E5E9A2E75005D20018
:1011400053E97FE5E9A2E6500BD20090F1E9E00413
:10115000F012102EA200D02022E990F1E8F07401E4
:101160006990F1E770047404F0227406F022C02044
:10117000A2F09200121435A200501A90F1127401DC
:1011800012217D90F110F090F11974FFF01221C638
:10119000E990F111F07A00EAC333F8E433F974B658
:1011A00028F8740439F988828983A3E493C0E0881D
:1011B000828983E493F8E428F5827583DFD0E0F038
:1011C0000AEA942140D1120F9690F11BE4F090F1BD
:1011D00014F090F30DE0600DE4F090F1E804F0906D
:1011E000F1E77404F0121121D02022C2F012116E26
:1011F000020C30120ABB501CD290740190F2F6F02F
:1012000090F10EE0A2E6500C1211EB90F2E5E4F042
:1012100090F2A2F07940120B271229D80223B1E5EF
:10122000C9540F44A0F5C9E5C9540F4450F5C9226B
:1012300043C90143C90880FE90F2C6E064AA701158
:10124000E4F01228037AD07B071229387900122E95
:101250000822C2AF90F2C674BBF01228030212300B
:1012600043FE1343FD7E759002438F8043F6EC7579
:10127000F721D291121292C294758A00C2EB438D6B
:101280000C439A10758900C2C5538CE7438C11D268
:10129000BD2253FE1F53FFFE53F61F53F7FE53F7B5
:1012A0003FE590F9A2A0E433333333F8E9C4135493
:1012B000074890F1EAF0A295500343FE20A2965011
:1012C0000343FE40A297500343FE80A2A050034375
:1012D000FF0143F6E043F70122C0E074F2120383FA
:1012E000C2AFC2C775A10243A110D2AD53BEFC125A
:1012F0000ABB500E90F2EBE0A2E44006120FF91286
:10130000067A1228C81223E38065C0E074F2120343
:1013100083C2AFE589A2E750031211F3758900C2B9
:10132000C5D2BD8047C0E074F2120383C2AFE58A24
:10133000A2E350031211F3E58AA2E250031206045D
:10134000758A00C2EB439A108022C0E074F2120347
:1013500083C2AFE5E4A2E55013120ABB50051205A3
:10136000E0800612121F120A8253E4DF53BEFCD241
:10137000AFE5A1A2E092C77F010203CC1213CC70AB
:101380000374FF697004D2F08002C2F0A2F022C0A0
:1013900008C009151015101213CC700374FF697082
:1013A00028A81074FAF20874FFF275080275090093
:1013B000780812040FC2F07CEA7D3BE5102402FAA3
:1013C000AB9312246C051005100208F1903BEAE47F
:1013D00093F8740193F974FF6822C008C009903B28
:1013E000E5E493541FFAE4A393F508750900740526
:1013F0007808120307A808E5095401F9EA48FAE950
:10140000FBA3E49324F6F508E434FFF509740978A6
:1014100008120307E509543EF9EB49FB0208F553AE
:10142000BEFBE5BEA2E550FA75C6C974C965C670B3
:10143000FA43BE042253BEFBE5BEA2E650FA75C6CF
:1014400088748865C670FA43BE042274F312032DB3
:1014500090F2DC85CA08F509F50AF50B7808120147
:10146000CB85080C85090DAE0CAF0D12220F90F242
:1014700089E014600F14602414605714606B1460CA
:101480007F02150590F28E12150AF8EF99F9C3E85C
:101490009408E99407406E1221B28069850A0E858E
:1014A0000B0F90F27C780C1201F190F278780C120C
:1014B000012C505190F2897405F0120ABB5046126B
:1014C0000F7C90F280780812021890F2897403F071
:1014D000803390F28078081201F190F30E780812B0
:1014E000012C5021121511801C90F29012150AFA4D
:1014F000EF99FB90F292121E5F400A1220E98005DC
:10150000120ABB40927F0802035E12206CEEC39861
:101510002274F712032D90F276E0F8740128F0E8B7
:10152000C39403502B90F2DC85CA08E4F509F50A50
:10153000F50B78081201CB90F2807808120218128D
:1015400015561216461221C6120F4B121047800371
:101550001221B2021F14539AFE759100228A828BC7
:1015600083A3A3A3A3E0F9903BE2E4936970218AEB
:10157000828B83A3A3A3E0F8903BE1E4936870100F
:101580008A828B83A3A3E0F8903BE0E49368601A1F
:1015900074FF6970198A828B83A3A3A3E0F4700E91
:1015A0008A828B83A3A3E0F4700478018002780020
:1015B000E8A2E02274FA12032D8A828B83E582244A
:1015C00002FEE5833400FFE06405700512183180E7
:1015D0002290F289E064046005E064057005122140
:1015E000B280100A0AEFFB12155D50F2EEFAEFFB23
:1015F000121C64021D3D74F712032D046970067AF3
:10160000C47B0980047ADC7B0590F297E0F508EA58
:101610008508F0A4FAA8F08508F0EBA428FB90F266
:101620009212206290F2DC780812020912163890A9
:10163000F290122062021F1485CA0AE508250AFAF0
:10164000E5093400FB2290F2DAE090F285F090F2A6
:10165000A0E0C0E090F284E0A2E0E433F8D0E048FB
:10166000700812070B79011211592274F812032D18
:10167000F8F9EA2406121A5AFDFCFE7F008F08EAE8
:101680002508121A50E0F50AF5083395E0F509E847
:101690002508F8E93509F9ED1218215006EDFCADE1
:1016A0000A8008EC1218215002AC0AEE12182140F0
:1016B00002AE0A0FEFC3940640C3EDFA3395E0FB88
:1016C000A2F05012ECF83395E0F9EA28F8EB39C3B0
:1016D00013E813F88022EEF5083395E0F509EA25C2
:1016E00008FAEB3509FBE8C39AF508E99BF509749C
:1016F0000278081202F8A808E8F97F0302035E7472
:10170000F712032DA2F09200750A94750805F509E9
:101710008018EAC3950BA2D265D033400BEA1218A9
:101720002140058A0A850908050990F296E0F8E546
:1017300009C398400302181CE50975F00DA4F8A927
:10174000F0742A28FE74F239FF8E828F83A3A3A33C
:10175000A3E0A2E250031216468E828F83A3E060BC
:10176000C78E828F83A3A3A3A3A3E0C3940440B82E
:10177000750B948E828F83E024DB602A24F460262C
:1017800014602324EB601F14601CA3A3A3A3E054E4
:1017900003C4F88E828F83A3A3A3E0C4540F48F838
:1017A00074DBC398F50BA20092F0EEFAEFFB121671
:1017B0006BE9FAEE240CF8EF3400F9EA88828983A9
:1017C00012182A6421600302171290F284E0A2E248
:1017D0004003021712C2E2F075080588828983E08F
:1017E000F83395E0F9E50BFA3395E0FBEA24FBFAD0
:1017F000EB34FFFBC3E89AE99BA2D265D033501CBF
:101800008E828F837422F0850908120F70121C5D7E
:10181000740190F30DF090F284122B7FA908021F3F
:1018200014C3950AA2D265D03322F08E828F83E052
:101830002274F312032D8A0A8B0BF50890F277E0DD
:10184000700690F2897401F090F2DC780C120209B3
:1018500085CA0EE50C250EF8E50D3400F990F28EE0
:10186000E8F0A3E9F08A828B83A3AE82AF83E0FA2B
:10187000E50A2402F50CEB3400F50DEA24DA6026C3
:1018800014602314602014600424FE703790F277F3
:10189000E06403600312218490F2967401F090F2E8
:1018A000777403F0805A90F277E0F8740368605020
:1018B000740168700312218490F2967401F090F222
:1018C000770480DF7C0090F277E024FE60301460C3
:1018D0002D8018EC121A62FB850C82850D83E06B5B
:1018E000700888828983E06A600E0C90F296E0F8B6
:1018F000ECC39840DEE004F090F2777401F08C08BD
:1019000090F289E06403600890F284E0A2E650233C
:101910008E828F83E0F890F271E068600F850C8210
:10192000850D83E0F890F270E0687007EEFAEFFB47
:10193000021A4AE508C394054003021A4DE50875EA
:10194000F00DA4F8A9F0742A28FA74F239FBEA24FD
:1019500005F8EB3400F988828983E0700D8E828F60
:1019600083EAFCEBFD740512024C88828983E0C394
:101970009406503BE0F50C8E828F83E024DB600EF2
:1019800024F4600A14600724EB600314700474F6F6
:101990008012850A82850B83A3A3A3A3A3A3E0A23D
:1019A000E71324B8C0E0EA250C121A50D0E0F08802
:1019B000828983E004F0C200D2017B008005C2006E
:1019C000C2010B90F296E0F8EBC3985022EB121A8A
:1019D0006260EFE82405F582E9121A5DC3940950AC
:1019E00012A20150D9E0C3940640D3D20080D3A202
:1019F00000505AC2F08E828F83E0644C7010850ACA
:101A000082850B83A3A3A3E0A2E75002D2F01216B3
:101A1000FFE9F874056870051221B28030E875F0AE
:101A20000DA4F8A9F0742A28FA74F239FBEA240C00
:101A3000121A5A2448C33390F294F08A828B83A3FB
:101A4000A3A3A3A3A3E090F295F0121A78021505C0
:101A500012244EA3A3A3A3A3A322F582EB12245125
:101A6000E02275F00DA4F8A9F0742A28F874F23970
:101A7000F988828983A3E02274F312032DEAFEEB36
:101A8000FFD200C201121CAAE9F508C2F0EE24023E
:101A9000FAEF3400FBE924DB601924F460291460B8
:101AA0002624EB604F14603524FE604824FE60500D
:101AB000021B578A828B83E064C67002D2F0122721
:101AC000D8121C5D021B621A1AEFFB12155D40034F
:101AD000021B62A908122E249200021B6290F29F40
:101AE000E0707F1A1AEFFB12155D5076740190F2C8
:101AF0009FF0806E90F29FE060681227EEE480EE27
:101B000090F2A0E070107401F090F29DE4F090F279
:101B10009CF090F29BF090F29CE004F090F2A2E036
:101B200070067401F01229D88E828F83A3A3E090EF
:101B3000F29AF0C4540F5407F50A90F2A1743DF0E4
:101B4000E50AC39406501B7400250AF58274051239
:101B5000244890F2A1809AD20174206508600302A3
:101B60001AD38E828F83E06508700AA3E090F2702A
:101B7000F0E508A3F0A2014003021C4EE50824E0B2
:101B8000601F24FD601B14601824FE601424FD6097
:101B9000108E828F83A3A3A3A3E0A2E34003021CC1
:101BA0004EA200400C1221A290F288E0D2E6021C64
:101BB00048EE2402F508EF3400F5098E828F83A3E6
:101BC000A3A3E0C454F0F8850882850983E0C454D7
:101BD0000F4854FC2402F9120F5D90F312120227F1
:101BE00090F278120233850882850983E0543FF52C
:101BF00008C39402404AE4F509F50AF50B90F31680
:101C0000780C1202097808790C12014B90F31A78BB
:101C1000081201CB90F278780812021890F2DC8555
:101C2000CA08E4F509F50AF50B78081201CB90F221
:101C30007C780812021890F10EE0D2E5F0120F70D5
:101C400090F2897402121F19F0122184800CA200F4
:101C500050051221B280031221A20215051221C6DD
:101C600012105F22EA2405F8EB3400F98A828B8394
:101C7000E024FE600D24FC601524FE602324F06047
:101C80002222A3E0FCE8FAE9FB7902021D42A3E06C
:101C900090F26CF090F26B7452F01220720211F319
:101CA000021252E8FAE9FB021E7974FA12032DEAD5
:101CB000FEEBFF8E828F83E0F50890F284E05405FE
:101CC0006401600690F2A0E06003122203E508249C
:101CD000DE600824FA600424FD705890F284E0A2CB
:101CE000E2403890F271E06421703074226508702F
:101CF0002A90F270E0F88E828F83A3E068701C75E2
:101D00000800120F7090F2DAE090F286F090F28400
:101D1000122B7F121C5D120F7C802090F284E0C297
:101D2000E2F0A2E6501590F271E06508700D7508BA
:101D300020800890F284E0A2E640EBA9087F01022F
:101D4000035E74F312032D1510ECA810F2EAFEEBFB
:101D5000FF12138F90F2DC85CA08E4F509F50AF545
:101D60000B78081201CB90F27C78081202188E8250
:101D70008F83A3E075F019A4F8A9F08E828F83E019
:101D800075F00FA4FAABF0E82AF50CE93BF50DE489
:101D9000F50EF50F90F31E7808120209780C7908F9
:101DA00012014B90F322780C1201CB90F278780C50
:101DB00012021890F270E0F9A810E269600512159D
:101DC00011807BD2F0D2F190F299E0F9E2697024AF
:101DD00090F2DAE0FCA3E0FD90F274121E68121E8D
:101DE0005F5002C2F090F272121E68A3A3121E5F2F
:101DF0005002C2F1A810E290F299F0A2F1400E90C8
:101E0000F277E06402600690F29EE0603690F26B3A
:101E1000740A121F197402F090F277E064017006E0
:101E200090F26D122B7FE290F26C12182A90F26EF3
:101E3000F08E828F83A3E090F26FF0122072051073
:101E4000021505A2F050138E828F83E0600C90F291
:101E50006B741A121F19740180BD1221B280DF1237
:101E6000206CC3EA98EB992212206CECC398FAED2F
:101E700099FB8E828F83A3A32274F712032D90F215
:101E80006DE0A2E2507490F28AE05407F87401B851
:101E900000028004C333D8FCC0E0E0F508A3E0F5FD
:101EA00009740378081202F8A808EA2812244EA33D
:101EB000D0E0F8E058603EE490F29E121F19E0D2A4
:101EC000E4F0C2F0122E9490F26DE0A2E090F2DA0B
:101ED000122068500590F274800390F272E8F0A32B
:101EE000E9F090F284E0C2E6121F19E0A2E3402478
:101EF0001221B2801F121511801A90F2DC85CA08D7
:101F0000E4F509F50AF50B78081201CB90F2807818
:101F1000081202187F0402035EF090F26D22EEC0F8
:101F2000E07E0090F2EBE0A2E050010E90F2F0E0D3
:101F30007004EED2E1FE90F2C5E06004EED2E2FE63
:101F400090F2EBE0A2E35004EED2E3FEE0A2E25016
:101F500004EED2E4FEE0A2E65004EED2E5FE122E3C
:101F6000865004EED2E6FE90F284E0A2E65004EE43
:101F7000D2E7FEEEF9D0E0FE2274F512032DE9FE61
:101F8000121F1EE990F1F2F090F2E3E090F1F3F00D
:101F900090F2D612206890F1F4E8F0A3E9F090F105
:101FA000F8749FF090F2D9E090F1FAF090F294E09A
:101FB00090F1FCF01213DA90F1F6122062903BE4FB
:101FC000E49390F201F090F1EAE06401700474FD92
:101FD000800B74526E700474F7800274FE90F200ED
:101FE000F090F2C9E090F1F9F090F2C8E090F1FBC6
:101FF000F090F2C7E090F202F0E5BE5418333333AC
:1020000054F8F890F2E9E0543F4890F1FDF090F177
:10201000E9E090F1FEF090F2DAE0F508A3E0940137
:10202000400890F3267808120209E50890F1FFF0C5
:10203000EE90F1EDF090F26CE0F990F1EE12217D6E
:1020400090F1F1F0903BE1E49390F1F0F0903BE0FF
:10205000E49390F1EFF07C177AEB7BF1120EE5023E
:102060000EC2EAF0A3EBF02212206C22E0F8A3E00B
:10207000F92274F912032DFE90F2897404F075E1CF
:102080000479011210AF120F7012217090F295E0D6
:10209000A2E0E433F890F298E03348121F19E0A26E
:1020A000E0500AA31220DC601C7900801590F26FCA
:1020B0001220DC90F26EE0FE70EF90F297E0600587
:1020C00079011215F690F297E08E082508F8E434AD
:1020D00000F990F28AE8F0A3E90208ABE01490F26C
:1020E00098F8E05890F297F022120ABB400790F25D
:1020F000897405F02290F26BE024F6605224F060BF
:102100000824C8704F7952804890F1EB741AF0900F
:10211000F26CE090F1EC12217D90F1EFF0903BE158
:10212000E49390F1EEF0903BE0E49390F1EDF090C9
:10213000F294E090F1F0F0121F1EE990F1F1F07CC2
:10214000077AEB7BF190F26CE0F9120EE5800579ED
:102150000A121F7990F26DE0A2E2501190F27674AB
:1021600003F090F28914F0122170020F700221B274
:102170007910120B2790F10EE0D2E5F022F0903B9F
:10218000E2E49322C008C00990F296E4F075084199
:10219000F509780812040F7C007D007A2A7BF20290
:1021A00008EE90F26D7402F090F277E4F090F2890C
:1021B000F0221221841221A290F276E4F090F288AB
:1021C000122336020FA590F2EDE0F9600B90F2C4F5
:1021D000E0A2E6500279BB22781E90F2C4E0A2E6AB
:1021E000500278C6741C28FA90F284E0544690F2AB
:1021F000EB6008E0A2E05008E8F922E0A2E050F825
:10220000EAF92290F284E0C2E0F07900021159EE7E
:10221000C0E090F2DAE0FE90F284E0A2E2501C907E
:10222000F2861222A59403401290F284E0C2E2F0FA
:102230007922122E24740190F30DF08E82AA8290DE
:10224000F28C1222ACE499F9E8496055C2F090F2A0
:102250008CEA120A7D90F284E0A2E0501590F2A080
:10226000E0700A90F2851222A5940A40051222031A
:10227000D2F090F284E0A2E6501990F2A0E0700A49
:1022800090F2871222A59406400990F284E0C2E6FB
:10229000F0D2F090F2A0E0A2E0B382F0500312215D
:1022A000B2D0E0FE22E0F8EEC398C32212206CEA1E
:1022B000C398F822C008C00975080C750900780891
:1022C00012040F7C007D007A787BF2122FC6051075
:1022D0000510740190F29EF090F28412217D90F22C
:1022E00098F01221841221A275080D780812040FAB
:1022F0007C007D007A6B7BF20208EE74F712032DEE
:10230000E9FE1223951221B21211EBEE6025122381
:102310003E1201CB90F2807808120218740190F2FC
:102320009E12233690F10EE0D2E5F07910120B27C1
:10233000120F7C021F14F01221C612105F2290F2BD
:10234000897403F090F2DC85CA08E4F509F50AF512
:102350000B78082274F712032D90F284E0D2E1F09A
:1023600090F276E4F012233E1201CB90F2807808CE
:10237000120218121511021F1490F284E0A2E1500B
:102380000AC2E1F0A2F050031221B22212239512E8
:1023900021B20211EB90F288E0A2E6501390F28491
:1023A000E0A2E6400BD2E6F090F2DAE090F287F09D
:1023B0002290F29CE0602B90F29BE0FA74012AF0EC
:1023C00090F29AE01313543F5403F874F828F582FE
:1023D0007404122448C39A5009E490F2A0F090F2D9
:1023E000A2F022C00890F2A0E0605A90F29DE004B2
:1023F000F090F29AE05403F874FC28F58274041209
:102400002448F875F00A8404F508E89508F890F275
:102410009CE0C398400E90F2A1E0F9122E24E490C3
:10242000F2A08020E02508F8E43400F990F29DE065
:10243000FAE89AE99400C365D0335009E490F2A019
:10244000F090F2A2F0D00822122451E49322F582F7
:10245000EB3400F58322000000000000000000E9DA
:1024600042D60000000000000000002274F71203B2
:102470002DE5102409F8E2FE08E2FFEB90F2AB1222
:10248000251174AFF0EF541FA3F0EEA3F0A3741264
:102490001224E475D684E5AEA2E740FA75AB118C40
:1024A000088D098C0A8D0B7409780A1202E8E50A76
:1024B000F5AD740178081202E8E508F5ACA2F05019
:1024C00009120122E5AEA2E740FA7904122456125D
:1024D0000128E5D1A2E250FAE5AE54C070FA53D11A
:1024E000FB021F14F0A37442F074F2F5D375D2A36B
:1024F0002275D682EB90F2A312251174D9F0ED5417
:102500001FA3F0ECA3F0A374131224E479020224B5
:1025100056F0EAA3F0A374DFF0A32274F912032D9E
:1025200090F2A374DFF0A374D9F0EBA3F0EAA3F068
:1025300074076C7001ED70047E0080027E04ED541F
:102540001FF8EEC43354E048A3F0ECA3F0A37413D7
:10255000F0A3141224E875D6828C088D097808122D
:10256000040F7C007D00122FC605100510790212A1
:1025700024560208AC74F712032D90F2C0E0606894
:10258000C2AF12121F7C057D007AB37BF21224F1D8
:1025900075E103E5E9A2E450FA12113453E9EFD2F0
:1025A000AFE5A1A2E092C790F2DC85CA08E4F50984
:1025B000F50AF50B78081201CB90F2B878081201F1
:1025C000F190F2BC780812012C501D90F2C1E0602D
:1025D0000A90F2C2E0F91222FB800312238CE490ED
:1025E000F2C0F0D290121047021F1474F712032D9C
:1025F000E990F2B3F0782C6435700278C6E8A3F065
:1026000090F2C77CB57DF2740312024C120B36C2F5
:1026100090121435792C120F4B120F961215567416
:102620000190F2C01223431201CB90F2B878081245
:102630000218021F14EEC0E0E990F2C2F07401909B
:10264000F2C1F090F32A12022790F2BC1202337901
:10265000331225EBD0E0FE22E490F2C1F090F32A91
:1026600012022790F2BC12023379340225EB74F97E
:1026700012032D903C007CC67DF2740412026D9012
:10268000F2C374FCF07A107B3CE0F5087509007425
:10269000027808120307EA2508FEEB3509FF8E824F
:1026A0008F83E0F47003A3E0F490F2C37007E014AA
:1026B000F0600580D4E070047E107F3C8E828F83B2
:1026C0007CD67DF2740412024C90F2D6E0940FA3F3
:1026D000E09427400790F2D6E4F0A3F090F2D9E01E
:1026E00004F0D2F012277F8E828F83A3A3E0F4F848
:1026F000740F58700790F2C474088020E8A2E2506A
:102700000790F2C474048014A2E1500790F2C474DC
:10271000028009A2E0500690F2C47401F0903C01DE
:10272000E493F4700FA3E493F47009A3E493F470BA
:1027300003E48002740190F2C50208ABEEC0E0E948
:10274000FEC2F090F2C4F0740F5E64087024D2F000
:1027500090F2D61228F3F090F2D6E0F47003A3E0E2
:10276000F4700790F2D6E4F0A3F090F2D8E0440FB2
:102770008005EEF490F2D8F012277FD0E0FE22C060
:1027800008C009A2F0502390F2C3E004F0C394FC07
:102790004018E4F0750814F509780812040FD2F017
:1027A0007C007D3C7AC67BF28028750804750900A0
:1027B000780812040FC2F090F2C3E0F508740278B2
:1027C0000812030774102508FC743C3509FD7AD6FD
:1027D0007BF212246C0208F1A2F090F2C4E05004E3
:1027E000D2E6F022C2E6F022E0FAA3E0FB228A82DF
:1027F0008B837CC77DF2740312024C0490F2C5F007
:10280000022803C008C00912121F750814750900B8
:10281000780812040FD2F07C007D3C7AC67BF2125D
:10282000246C0510051090F2C3E4F00208F5C0E036
:10283000C0D0E8C0E0C008C009C00AC00BC082C058
:1028400083C2AF90F32E780812020990F2DC780868
:102850001201DED2AFE5A1A2E092C7D083D082D030
:102860000BD00AD009D008D0E0F8D0D0D0E032C0E8
:1028700008C0098A088B09740378081202F8E5C6B3
:10288000131313541F5407F8741AB800028004C3BA
:1028900013D8FCFA8508F0A4CAA8F08509F0A4288A
:1028A000FB75E40675E57CD2B9EAF5DAEBF5DB02F7
:1028B00008F5C2B953E5BF2275E40675E57CD2B9C7
:1028C00022EAF5DAEBF5DB2290F2E0E070047824FE
:1028D0008002780990F2E1E028800DE024ECF0120B
:1028E0002A1190F2DA1228F3F090F2E1E0C3941486
:1028F00050E922E02401F0A3E0340022C2AFE990C5
:10290000F2E0F070067CC07DF380047CF07D3C75C5
:10291000A204E5A5F8E5A56860FBE5A5F8E5A568CE
:1029200060FBEDF5A4ECF5A3C2C775A110D2ADD242
:10293000AFE5A1A2E092C722C008C0098A088B09AE
:10294000E5C6540778081202F8AA08AB09EAF8EBC2
:10295000F9E824FF1AE934FFFBE84970F00208F5B2
:1029600075CBF875CC0075CE00D2BB2290F2F1E0A9
:10297000701290F2EBE0A2E0400AE490F2F0122C28
:1029800066744BF022A2F090F2EBE0500AA2E14014
:102990000FE0D2E1F08014A2E15005E0C2E180F442
:1029A00090F2EEC3E09AA3E09B500C90F2F4122058
:1029B0006290F2EE12206222EEC0E07E6C12137C76
:1029C00050047E0A800F90F2EBE0A2E15007122A39
:1029D000E560027E3F021F7390F2EBE054AF1229D4
:1029E000E222F01229E7221229B8E990F2E9F02256
:1029F000122AE5600890F2EBE0A2E1500A90F2E7BB
:102A0000E07004A3E06004780180027800E8A2E0AE
:102A10002290F2E6E0600914F0700590F0FFE4F017
:102A2000122AE5601990F2EEE024FFF018A3E034DA
:102A3000FFF0F9E849700790F2F4E4F0A3F090F2A7
:102A4000E7E0600914F07005D2F0122E9490F2E8DD
:102A5000E0600214F090F2E4E0600214F0A3E060A1
:102A60000214F0120ABB502E90F2EAE0600B14F050
:102A7000700790F2EBE0D2E6F090F2EBE0A2E040DB
:102A80000AE0A2E6500812137C4003122AFB90F2DF
:102A9000E9E0600814F090F2E9E070221229F050A9
:102AA0000DC290E490F2F6122E80D2E4800690F1EE
:102AB0000EE0D2E6F090F2E4E4F0A3F0A3F090F29E
:102AC000EBE0A2E4501E90F2E9E070181229F04009
:102AD00013120ABB500E90F2EBE0C2E4F090F10E3C
:102AE000E0D2E6F02290F2EE12206CE84922C2AF6A
:102AF000122AFB7940120B2702292F1229E790F2A4
:102B0000EBE0C2E4F02290F2EBE0A2E040107901A9
:102B10001208FA5009C2AF122AEE79018002D322BC
:102B200012273C1221A2120F7012065CD2AFE5A14F
:102B3000A2E092C7C32290F2EBE0A2E05015790226
:102B40001208FA500EC2AF90F2ECE4F0122AEE79BD
:102B50000480CDD322C020A2F0920090F2E7740A44
:102B6000F0122354A200500690F2EB122B7F740156
:102B700090F29EF0E490F2F6F0D0202290F10EE078
:102B8000D2E2F02274FA12032D8908FBEB75F003F0
:102B9000A4F8A9F0740628F8740539F9E8FEE9FFED
:102BA0008E828F83E49365086003022C54A3E49320
:102BB000FAA2E2500990F2E5E06003022C5EEAA27C
:102BC000E0500990F2E6E06003022C5EEAA2E350D6
:102BD00008122AE56003022C5EEAA2E4500690F295
:102BE000F0E0707AEAA2E1500690F2E4E0706FA99A
:102BF00008122B0640688E828F83A3A3E493F8A269
:102C0000E1500590F2E4E4F0740190F2F0F0E49009
:102C1000F2F1F090F2EEF0A3F090F2F4F0A3122CA7
:102C200066122E80C2E2F0E8A2E2501090F2E77441
:102C30000A122E80D2E3F0E490F2F6F0E8A2E0501F
:102C40000590F2E6E4F0C2F0122379E50890F2EC88
:102C5000F0C3800B0BEBC394085003022B8CD30200
:102C60001D3DE490F2F1F090F2ED2274FA12032D82
:102C7000E9FED20090F2EDE0FFEE90F2F3F01204E4
:102C800024021012E22C1314EA2C1B00E22C15F083
:102C90002C16EA2C22EA2C36A72D38DE2C3BBA2D36
:102CA00042922D4CBA2D578D2D5ADE2C656F2D7109
:102CB000E22C87EA2C8EEA2CA5172DA9342DAADE4A
:102CC0002CAF4F2DB0572DB55D2DBA632DBF692D9B
:102CD000C5452DC9492DCB412DE5792DF42D122C5B
:102CE00062F0122B849200022DF9122B36022E056F
:102CF000D2F090F2ECE064AA6019E064386014E06D
:102D0000645A600F7915122B3692F0400690F2E566
:102D1000741EF0A2F080CE120ABB4003022DF912FD
:102D200021A2120F7012078743804290F2EB122EFD
:102D3000CA022DF97A1E7B00D2F0122985D3022E09
:102D4000057A3C80F17A7880ED7A2C7B0180E97AF3
:102D5000587B02C2F080E37A087B0780F67A107B0A
:102D60000E80F07A307B2A80EA7AC07BA880E490DB
:102D7000F2F47401F0A3E4807F122AE5607B90F204
:102D8000F412206890F2EEE8F0A3E9806B12296C4F
:102D9000806790F2EBE0A2E0405F740190F2F0F007
:102DA000122C637483805190F2EBE0A2E0404A74ED
:102DB0000190F2F0F0122C62803E122C62F0744C02
:102DC0006E7004D2F08002C2F0122AE57004A2F004
:102DD000400A90F2F0E0A2E072F0401D740190F21F
:102DE000F0F090F2E8E07005D2F0122B5590F2E886
:102DF000740A8004E490F2F2F090F2EDE06F600368
:102E0000120FA5A200021D3DEEC0E0740190F2F287
:102E1000F090F2C0E07003122C6B90F2F2E0A2E0AE
:102E2000D0E0FE2274F912032DE9FE790374DF2E3F
:102E3000C3942F500E8E0874FD2508F58274041279
:102E40002448F9122C6B0208AC90F2EBE4F090F2FB
:102E5000F4F0A3F090F2F3F00490F2F0F090F2EEC0
:102E6000E4F0A3F090F2E6F090F2E4F0A31229E28D
:102E7000122F57E490F2E2122E80A2E0E433F02207
:102E8000F090F2EBE022122AE56004D2F08002C258
:102E9000F0A2F02290F2EBE054F3F012237990F2DA
:102EA000E7E4F00402071090F2EB12070B7902122C
:102EB000273C90F2C5E090F2EB6009E0540CF91267
:102EC00026358003122ECA020653E0540CF9122252
:102ED000FB2290F2F3E024EC601124FE60062488CB
:102EE0006009802090F2E6741E801D90F2EBE054A1
:102EF000F3F090F2E7E4F090F2E6740AF090F2E476
:102F0000741E800890F2E6E4F090F2E4122E80C283
:102F1000E0F0790812273C90F2E6E0600590F0FFBF
:102F2000E4F090F2C5E06005122658800312238C6D
:102F3000740190F2E2F0122F57D2911229B8E99061
:102F4000F2E9122E80C2E6F090F2F3E0642260060D
:102F500090F2EA7403F0221208B1EA90F2E3F02250
:102F6000EEC0E0E9FE740F5E14600914601224FEE6
:102F7000601F802790F2EBE4F07971122E08802B0D
:102F800090F2EB12070BC2917940120B27D290807E
:102F90001A90F2EB7401F0798E80E090F2EBE0C2CF
:102FA000E01229E290F2EBE0D2E6F012137C40123C
:102FB00090F2C6E064AA600A79C5122E08C2F01227
:102FC0002B55D0E0FE2274FA12032DE5102406F8EA
:102FD000E2FE08E2FF8A828B838003ECF0A3EEF826
:102FE000EFF9E824FF1EE934FFFFE84970ED7F01A7
:102FF00002035EFFFFFFFFFFFFFFFFFFFFFFFF2159
:1030000002309DFFFFFFFFFFFFFFFFFFFFFFFFFFFE
:10301000FFFFFFFFFFFFFFFFFFFFFFFFFFFFFFFFC0
:10302000FFFFFFFFFFFFFFFFFFFFFFFFFFFFFFFFB0
:10303000FFFFFFFFFFFFFFFFFFFFFFFFFFFFFFFFA0
:10304000FFFFFFFFFFFFFFFFFFFFFFFFFF02309DBE
:1030500000000080FB1230ACB90003023097E4900E
:10306000F1FF787979058002F0A3D8FCD9FA90F6BF
:1030700077AA82AB839030AF780379018015E4930F
:10308000A3AC82AD838A828B83F0A3AA82AB838CAC
:10309000828D83D8E9D9E712322F12305075D000D3
:1030A0007581207510FF7511F102305579012201EB
:1030B000FFFF43AE0100220043AE0222CAC0E0E699
:1030C000F0A308DAFAD0E0FA22CAC0E0E493A3C57C
:1030D00082CCC582C583CDC583F0A3C582CCC58211
:1030E000C583CDC583DAE5D0E0CA22600D08C6A24B
:1030F000E713C618C613C6D5E0F322251010AF0893
:10310000F510400215118008F51040021511D2AFDC
:1031100022C0D0251010AF08F5105002051180080C
:10312000F51050020511D2AFD0D0222510F5821033
:10313000AF08F510400215118008F5104002151176
:10314000D2AF851183222510F582E43511F5832253
:103150002510C582C0E0E51134FFC583C0E0E5104D
:10316000C3958224F9F8E4C5A8858311858210C52A
:10317000A8E8CEF0A3E520F0A37808E608F0A3DEE7
:10318000FAEFF0A3E58124FBF8E608F0A3E608F0E7
:10319000A30808E608F0A3E608F0A315811581D07E
:1031A000E0FED0E0F815811581E8C0E0EEC0E02235
:1031B000851183851082E0A3FEE0A3F5207808E066
:1031C000A3F608DFFAE0A3FFE0A3C0E0E0A3C0E0BD
:1031D000E0A3C0E0E0A3C0E0E4C5A8858210858339
:1031E00011C5A8D083D0822274028000C0E0F4040C
:1031F00012312BD0E01230BC22D083D082C5F0E453
:1032000093A3C5F0C395F0F5F0E493A3C395F04004
:1032100005E5F0048001E475F002A42582F582E55D
:10322000F03583F583E493A3C0E0E493C0E02290FB
:10323000DF36E06491700A43C903E5C943C90880D9
:10324000FEC2AF1237BB90F62EE064BB600A1232AA
:10325000B0E9600412328C22123AF312352CE49059
:10326000F1FFF043C908800C123285123451E96035
:10327000037401F0E060F11232B0E96004123290A0
:10328000221230002275C9A075C950220200D32233
:10329000C082C08390F1FFE0600474AA8001E490D2
:1032A000F62EF01237D043C903E5C943C90880FEA2
:1032B00074F51231507A007B00902FFEE0F508A3E0
:1032C000E0F5098A828A837EFE7F2FE0F91232F4CC
:1032D000A3EE24FF1EEF34FFFFEE7001EF70ECE56C
:1032E000086A7003E5096B70047901800279007F38
:1032F000040231B0EEC0E0E96BFB7E088005ECFA19
:10330000EDFB1EEE601EEAFCEBFDECC333FCED337F
:10331000FD74805BFBE47001EB60E374056CFA7490
:10332000806D80DDD0E0FE2274F5123150740B12F6
:103330003146E0FEA3E0FFEB90F200F0EA90F201EC
:10334000F074DF90F202F074AF90F203F0EF541FCC
:1033500090F204F0EE90F205F0741290F206F07420
:103360004290F207F074F2F5D575D400E5AEA2E70D
:1033700040FA75AB118C088D098C0A8D0B74097895
:103380000A1230EBE50AF5AD740178081230EBE56E
:1033900008F5AC90F677E060091230B2E5AEA2E72E
:1033A00040FA43D6011230B8E5D1A2E050FA74C019
:1033B00055AE70FA53D1FE7F040231B0C082C08393
:1033C000EB90F208F0EA90F209F074DF90F20AF064
:1033D00074D990F20BF0ED541F90F20CF0EC90F2D7
:1033E0000DF0741390F20EF0744290F20FF074F23C
:1033F000F5D375D20843D602D083D08222C082C0D2
:103400008374DF90F208F074D990F209F0EB90F237
:103410000AF0EA90F20BF0ED541F448090F20CF0A9
:10342000EC90F20DF0741390F20EF0741290F20F13
:10343000F074F2F5D375D20875D68243D602D083E4
:10344000D08222C082C083E990F677F0D083D08208
:103450002274F512315074FF1230FBE4851082851E
:103460001183F0F508123AEE8A0A8B0B7402250AD2
:10347000FEE4350BFF750900740A90F628F0E4901D
:10348000F629F090F62AF090F62BF090F62CF0A3A7
:10349000F090F6267410F0A374F2F090F624749075
:1034A000F0A374F5F0800C90F628E014F0E07003BF
:1034B000750902740265096067123285851082857C
:1034C0001183AA82AB83123941E960DBE50912312D
:1034D000F90001B334D934F6348E828F83E0640668
:1034E00070D1740A90F628F079867A787BF61238D3
:1034F0009875090180BD8E828F83E0640570081283
:103500003AEE12357380ACE0640970A77508017556
:10351000090279897A787BF61238981237568093A7
:10352000A90874011231117F040231B022C082C097
:103530008390F62BE02980318A828B83E0C0E09073
:10354000F624E0F8A3E0F5838882D0E0F08A828B4D
:1035500083A3AA82AB8390F624E02401FCA3E03489
:1035600000FD90F624ECF0A3EDF0E91970CAD083C9
:10357000D0822274F712315074FF1230FBEA240714
:10358000F8EB3400F9E8FEE9FF8A828B83E014FD52
:103590008E828F83E0547FFC74FF851082851183B7
:1035A000F08D08EA2508F582EB3400F583A3A3A388
:1035B000E0A2E7506790F629E06C705474FA2DF998
:1035C0008E828F83A3AA82AB8312352D90F629E0D9
:1035D0004480F508740A90F628F090F629E090F6F9
:1035E0002AF090F629E004F0E0C394804002E4F071
:1035F0008E828F83E0A2E7502B12363DE96025E4EE
:1036000090F62BF090F6247490F0A374F5F08014EB
:1036100090F62AE06C7005E04480800690F629E080
:10362000547FF508A908851082851183AA82AB838F
:1036300012389874011231117F020231B074F31202
:1036400031507508917509F57E907FF57A007B0001
:1036500090F62BE0F50A8E828F83E0F91232F4A304
:10366000AE82AF83150AE50A70ECEA7001EB6026C2
:10367000790080708A82AE82EEFC7D00AA08AB09D8
:103680001236E9E5082EF508E5093400F50980064B
:103690007508247509F6C3E5089424E50994F650E5
:1036A00041A808A90988828983A3A3A3A3A3E0FA58
:1036B000E82406F508E93400F50988828983E012D8
:1036C00031F90007D63690369036903674369636F5
:1036D000D636D6369636E50824FBF508E50934FFDC
:1036E00080AA79017F060231B074F4123150EAFEEB
:1036F000EBFF8C088D09750C0080448E828F83E06F
:10370000C0E090F626E0F8A3E0F5838882D0E0F0F0
:103710008E828F83A3AE82AF8390F626E02401F8D9
:10372000A3E03400F990F626E8F0A3E9F090F6263D
:10373000C3E09410A3E094F64003123756050C85BD
:103740000C0AC3E50A9508E49509A2D265D0334076
:10375000AA7F050231B074F712315090F626E0C30B
:103760009410F508A3E094F2F509123285E508708B
:1037700002E509602690F62CC3E094FFA3E0942FA5
:10378000501978081231E890F62CE0FCA3E0FD7A9D
:10379000107BF2123328740212311190F626741045
:1037A000F0A374F2F090F62CE02508F0A3E03509C0
:1037B000F07F020231B07A107BF222C082C0839087
:1037C0003C007C2E7DF674041230C9D083D0822256
:1037D00074F71231501237B68A088B09AE08AF0958
:1037E0007810793C7A007B00802388828983E0C04E
:1037F000E0EE2AF582EF3BF583D0E0F08882898302
:10380000A3A882A983EA24010AEB3400FBC3EA944B
:10381000F0EB9403A2D265D03340CF75080475094C
:103820000078081231E87C007D3C7A2E7BF612335A
:1038300028740212311179001234437508F07509A9
:103840000378081231E87C107D3CEEFAEFFB12336E
:1038500028740212311179011234437F020231B00F
:10386000C082C083E990F634F08A828B83E090F6C0
:1038700035F0903BE0E49390F636F0903BE1E49332
:1038800090F637F0903BE2E49390F638F08A828B22
:1038900083E0F9D083D0822274F8123150E9FF74AA
:1038A0000490F639F0EF90F63AF0E490F63BF090A1
:1038B000F63CF079511238607A0A1238F77F01022B
:1038C00031B074F81231507E00E5E9A2E7500A0EDB
:1038D00090F674E004F053E97FE5E9A2E650117E2A
:1038E0000190F675E004F053E9BF1239E412399FF4
:1038F000EEF97F010231B074F8123150E9FEEAFFAF
:103900001239E4EF90F632F0EE90F633F075E10400
:1039100090F632E0F8740128FCE43400FD7A327B42
:10392000F61233BC75E103E5E9A2E450FA1238C29D
:1039300053E9EFE5D1A2E150FA53D1FD7F01023105
:10394000B074F6123150EAFEEBFF750A007508609C
:103950007509EA90F676E0700312399FA808A90964
:1039600074FF28F50874FF39F509C3E89402E99457
:10397000004006E5E9A2E450E3E5E9A2E4501912AB
:1039800038C2E9700D750A0190F632E0148E828F0C
:1039900083F053E9EF43D602A90A7F030231B074E2
:1039A000F71231507A00801574BEC0E08A08E5082D
:1039B0002432F582E434F6F583D0E0F00AEAC394C9
:1039C0001440E57C407D007A327BF61233FD539B38
:1039D000FCE59B53E9EF75E102740190F676F07F08
:1039E000020231B0C082C08375E10475E10190DF4D
:1039F0003BE0640170F875D68253D1FD539BFCE522
:103A00009B53E9EFE490F676F0D083D0822253BE48
:103A1000FBE5BEA2E650FA53C6BF53C6F8E5C6435F
:103A2000BE0422C082C08374D390DF00F0749190F2
:103A3000DF01F074FF90DF02F0740490DF03F07494
:103A40004590DF04F0E490DF05F0740290DF06F0AB
:103A5000740C90DF07F0E490DF08F0745C90DF09ED
:103A6000F0745890DF0AF0749D90DF0BF0740E90A4
:103A7000DF0CF0743B90DF0DF0747390DF0EF07488
:103A8000A390DF0FF0748C90DF10F0E490DF11F062
:103A9000740790DF12F0743C90DF13F0741490DF21
:103AA00014F0741D90DF15F0741C90DF16F074C7CD
:103AB00090DF17F0744090DF18F074B290DF19F0C7
:103AC00074B690DF1AF0741090DF1BF074EA90DF88
:103AD0001CF0740A90DF1DF0E490DF1EF074199062
:103AE000DF1FF074FF90DF2EF0D083D082227A3275
:103AF0007BF622C082C083123A0E123A2374FF90E2
:103B0000DF2EF0740190DF05F0740290DF06F0758F
:103B1000E10475E10190DF3BE0640170F8D083D0EF
:103B20008222FFFFFFFFFFFFFFFFFFFFFFFFFFFFFF
:103B3000FFFFFFFFFFFFFFFFFFFFFFFFFFFFFFFF95
:103B4000FFFFFFFFFFFFFFFFFFFFFFFFFFFFFFFF85
:103B5000FFFFFFFFFFFFFFFFFFFFFFFFFFFFFFFF75
:103B6000FFFFFFFFFFFFFFFFFFFFFFFFFFFFFFFF65
:103B7000FFFFFFFFFFFFFFFFFFFFFFFFFFFFFFFF55
:103B8000FFFFFFFFFFFFFFFFFFFFFFFFFFFFFFFF45
:103B9000FFFFFFFFFFFFFFFFFFFFFFFFFFFFFFFF35
:103BA000FFFFFFFFFFFFFFFFFFFFFFFFFFFFFFFF25
:103BB000FFFFFFFFFFFFFFFFFFFFFFFFFFFFFFFF15
:103BC000FFFFFFFFFFFFFFFFFFFFFFFFFFFFFFFF05
:103BD000FFFFFFFFFFFFFFFFFFFFFFFFFFFFFF00F4
:103BE000FC800A01080A0812FFFFFAFFFFFFFFFF2F
:103BF000FFFFFFFFFFFFFFFFFFFFFFFFFFFFFFFFD5
:103C0000FFFFFFFF000000000000000000000000B8
:103C10009A00F89D9A00F89E9A00F89F9A00F8A0E2
:103C20009A00F8A19A00F8A29A00F8A39A00F8A4C2
:103C30009B00FFA49B00FFA59B00FEA69B00FCA78A
:103C40009B00FCA89B00FCA99B00FCAA9B00FCAB72
:103C50009B00FCAC9B00FCAD9B00FCAE9B00FCAF52
:103C60009B00FCB09B00FCB19B00FCB29B00FCB332
:103C70009B00FCB49B00FCB59B00FCB69B00F8B716
:103C80009C00FCB79C00FCB89C00FCB99C00FCBAF2
:103C90009C00FCBB9C00F8BC9D00F8BC9E00F8BCDE
:103CA0009F00F8BCA000F8BCA100F8BCA200F8BCC2
:103CB000A300F8BCA400F8BCA500F8BCA600F8BCA2
:103CC000A700F8BCA800F8BCA900F8BCAA00F8BC82
:103CD000AB00F8BCAC00F8BCAD00F8BCAE00F8BC62
:103CE000AF00F8BCB000F8BCB100F8BCB200F8BC42
:103CF000B300F8BCB400F8BCB500F8BCB600F8BC22
:103D0000B700F8BCB800F8BCB900F8BCBA00F8BC01
:103D1000BB00F8BCBC00F8BCBD00FFBCBD00FFBDD3
:103D2000BD00FFBEBD00FFBFBD00FFC0BD00FFC1A5
:103D3000BD00FFC2FFFFFFFFFFFFFFFFFFFFFFFF11
:103D4000FFFFFFFFFFFFFFFFFFFFFFFFFFFFFFFF83
:103D5000FFFFFFFFFFFFFFFFFFFFFFFFFFFFFFFF73
:103D6000FFFFFFFFFFFFFFFFFFFFFFFFFFFFFFFF63
:103D7000FFFFFFFFFFFFFFFFFFFFFFFFFFFFFFFF53
:00000001FF
